{
  "contractName": "ProofOfTrees",
  "abi": [
    {
      "inputs": [],
      "stateMutability": "nonpayable",
      "type": "constructor"
    },
    {
      "anonymous": false,
      "inputs": [
        {
          "indexed": true,
          "internalType": "address",
          "name": "owner",
          "type": "address"
        },
        {
          "indexed": true,
          "internalType": "address",
          "name": "spender",
          "type": "address"
        },
        {
          "indexed": false,
          "internalType": "uint256",
          "name": "value",
          "type": "uint256"
        }
      ],
      "name": "Approval",
      "type": "event"
    },
    {
      "anonymous": false,
      "inputs": [
        {
          "indexed": false,
          "internalType": "address",
          "name": "curator",
          "type": "address"
        }
      ],
      "name": "LogCuratorAdded",
      "type": "event"
    },
    {
      "anonymous": false,
      "inputs": [
        {
          "indexed": false,
          "internalType": "string",
          "name": "exifSHA",
          "type": "string"
        }
      ],
      "name": "LogPaid",
      "type": "event"
    },
    {
      "anonymous": false,
      "inputs": [
        {
          "indexed": false,
          "internalType": "string",
          "name": "exifSHA",
          "type": "string"
        }
      ],
      "name": "LogPending",
      "type": "event"
    },
    {
      "anonymous": false,
      "inputs": [
        {
          "indexed": false,
          "internalType": "string",
          "name": "exifSHA",
          "type": "string"
        }
      ],
      "name": "LogRejected",
      "type": "event"
    },
    {
      "anonymous": false,
      "inputs": [
        {
          "indexed": true,
          "internalType": "address",
          "name": "from",
          "type": "address"
        },
        {
          "indexed": true,
          "internalType": "address",
          "name": "to",
          "type": "address"
        },
        {
          "indexed": false,
          "internalType": "uint256",
          "name": "value",
          "type": "uint256"
        }
      ],
      "name": "Transfer",
      "type": "event"
    },
    {
      "inputs": [
        {
          "internalType": "address",
          "name": "owner",
          "type": "address"
        },
        {
          "internalType": "address",
          "name": "spender",
          "type": "address"
        }
      ],
      "name": "allowance",
      "outputs": [
        {
          "internalType": "uint256",
          "name": "",
          "type": "uint256"
        }
      ],
      "stateMutability": "view",
      "type": "function"
    },
    {
      "inputs": [
        {
          "internalType": "address",
          "name": "spender",
          "type": "address"
        },
        {
          "internalType": "uint256",
          "name": "amount",
          "type": "uint256"
        }
      ],
      "name": "approve",
      "outputs": [
        {
          "internalType": "bool",
          "name": "",
          "type": "bool"
        }
      ],
      "stateMutability": "nonpayable",
      "type": "function"
    },
    {
      "inputs": [
        {
          "internalType": "address",
          "name": "account",
          "type": "address"
        }
      ],
      "name": "balanceOf",
      "outputs": [
        {
          "internalType": "uint256",
          "name": "",
          "type": "uint256"
        }
      ],
      "stateMutability": "view",
      "type": "function"
    },
    {
      "inputs": [
        {
          "internalType": "uint256",
          "name": "",
          "type": "uint256"
        }
      ],
      "name": "curators",
      "outputs": [
        {
          "internalType": "address",
          "name": "",
          "type": "address"
        }
      ],
      "stateMutability": "view",
      "type": "function"
    },
    {
      "inputs": [],
      "name": "decimals",
      "outputs": [
        {
          "internalType": "uint8",
          "name": "",
          "type": "uint8"
        }
      ],
      "stateMutability": "view",
      "type": "function"
    },
    {
      "inputs": [
        {
          "internalType": "address",
          "name": "spender",
          "type": "address"
        },
        {
          "internalType": "uint256",
          "name": "subtractedValue",
          "type": "uint256"
        }
      ],
      "name": "decreaseAllowance",
      "outputs": [
        {
          "internalType": "bool",
          "name": "",
          "type": "bool"
        }
      ],
      "stateMutability": "nonpayable",
      "type": "function"
    },
    {
      "inputs": [
        {
          "internalType": "address",
          "name": "spender",
          "type": "address"
        },
        {
          "internalType": "uint256",
          "name": "addedValue",
          "type": "uint256"
        }
      ],
      "name": "increaseAllowance",
      "outputs": [
        {
          "internalType": "bool",
          "name": "",
          "type": "bool"
        }
      ],
      "stateMutability": "nonpayable",
      "type": "function"
    },
    {
      "inputs": [],
      "name": "name",
      "outputs": [
        {
          "internalType": "string",
          "name": "",
          "type": "string"
        }
      ],
      "stateMutability": "view",
      "type": "function"
    },
    {
      "inputs": [],
      "name": "owner",
      "outputs": [
        {
          "internalType": "address",
          "name": "",
          "type": "address"
        }
      ],
      "stateMutability": "view",
      "type": "function"
    },
    {
      "inputs": [],
      "name": "symbol",
      "outputs": [
        {
          "internalType": "string",
          "name": "",
          "type": "string"
        }
      ],
      "stateMutability": "view",
      "type": "function"
    },
    {
      "inputs": [],
      "name": "thisCurator",
      "outputs": [
        {
          "internalType": "uint256",
          "name": "",
          "type": "uint256"
        }
      ],
      "stateMutability": "view",
      "type": "function"
    },
    {
      "inputs": [],
      "name": "totalSupply",
      "outputs": [
        {
          "internalType": "uint256",
          "name": "",
          "type": "uint256"
        }
      ],
      "stateMutability": "view",
      "type": "function"
    },
    {
      "inputs": [
        {
          "internalType": "address",
          "name": "recipient",
          "type": "address"
        },
        {
          "internalType": "uint256",
          "name": "amount",
          "type": "uint256"
        }
      ],
      "name": "transfer",
      "outputs": [
        {
          "internalType": "bool",
          "name": "",
          "type": "bool"
        }
      ],
      "stateMutability": "nonpayable",
      "type": "function"
    },
    {
      "inputs": [
        {
          "internalType": "address",
          "name": "sender",
          "type": "address"
        },
        {
          "internalType": "address",
          "name": "recipient",
          "type": "address"
        },
        {
          "internalType": "uint256",
          "name": "amount",
          "type": "uint256"
        }
      ],
      "name": "transferFrom",
      "outputs": [
        {
          "internalType": "bool",
          "name": "",
          "type": "bool"
        }
      ],
      "stateMutability": "nonpayable",
      "type": "function"
    },
    {
      "inputs": [],
      "name": "treeCount",
      "outputs": [
        {
          "internalType": "uint256",
          "name": "",
          "type": "uint256"
        }
      ],
      "stateMutability": "view",
      "type": "function"
    },
    {
      "inputs": [
        {
          "internalType": "string",
          "name": "",
          "type": "string"
        }
      ],
      "name": "trees",
      "outputs": [
        {
          "internalType": "address payable",
          "name": "curator",
          "type": "address"
        },
        {
          "internalType": "address payable",
          "name": "hippie",
          "type": "address"
        },
        {
          "internalType": "string",
          "name": "exifSHA",
          "type": "string"
        },
        {
          "internalType": "string",
          "name": "rejectedReason",
          "type": "string"
        },
        {
          "internalType": "enum ProofOfTrees.TreeStatus",
          "name": "tStatus",
          "type": "uint8"
        },
        {
          "internalType": "enum ProofOfTrees.TreeType",
          "name": "tType",
          "type": "uint8"
        },
        {
          "internalType": "int256",
          "name": "lat",
          "type": "int256"
        },
        {
          "internalType": "int256",
          "name": "long",
          "type": "int256"
        },
        {
          "internalType": "bool",
          "name": "valid",
          "type": "bool"
        }
      ],
      "stateMutability": "view",
      "type": "function"
    },
    {
      "inputs": [
        {
          "internalType": "string",
          "name": "_exifSHA",
          "type": "string"
        },
        {
          "internalType": "uint8",
          "name": "_tType",
          "type": "uint8"
        },
        {
          "internalType": "int256",
          "name": "_lat",
          "type": "int256"
        },
        {
          "internalType": "int256",
          "name": "_long",
          "type": "int256"
        }
      ],
      "name": "createTree",
      "outputs": [],
      "stateMutability": "nonpayable",
      "type": "function"
    },
    {
      "inputs": [
        {
          "internalType": "string",
          "name": "_exifSHA",
          "type": "string"
        },
        {
          "internalType": "string",
          "name": "_rejectReason",
          "type": "string"
        }
      ],
      "name": "reject",
      "outputs": [],
      "stateMutability": "nonpayable",
      "type": "function"
    },
    {
      "inputs": [
        {
          "internalType": "string",
          "name": "_exifSHA",
          "type": "string"
        }
      ],
      "name": "pay",
      "outputs": [],
      "stateMutability": "nonpayable",
      "type": "function"
    },
    {
      "inputs": [],
      "name": "becomeCurator",
      "outputs": [],
      "stateMutability": "nonpayable",
      "type": "function"
    },
    {
      "inputs": [
        {
          "internalType": "address",
          "name": "curator",
          "type": "address"
        }
      ],
      "name": "curatorInArray",
      "outputs": [
        {
          "internalType": "bool",
          "name": "",
          "type": "bool"
        }
      ],
      "stateMutability": "view",
      "type": "function"
    },
    {
      "inputs": [
        {
          "internalType": "uint256",
          "name": "pos",
          "type": "uint256"
        }
      ],
      "name": "getCuratorPosition",
      "outputs": [
        {
          "internalType": "address",
          "name": "",
          "type": "address"
        }
      ],
      "stateMutability": "view",
      "type": "function"
    },
    {
      "inputs": [
        {
          "internalType": "string",
          "name": "_exifSHA",
          "type": "string"
        }
      ],
      "name": "fetchTree",
      "outputs": [
        {
          "internalType": "address payable",
          "name": "curator",
          "type": "address"
        },
        {
          "internalType": "address payable",
          "name": "hippie",
          "type": "address"
        },
        {
          "internalType": "string",
          "name": "exifSHA",
          "type": "string"
        },
        {
          "internalType": "string",
          "name": "rejectedReason",
          "type": "string"
        },
        {
          "internalType": "uint8",
          "name": "tStatus",
          "type": "uint8"
        },
        {
          "internalType": "uint8",
          "name": "tType",
          "type": "uint8"
        },
        {
          "internalType": "int256",
          "name": "lat",
          "type": "int256"
        },
        {
          "internalType": "int256",
          "name": "long",
          "type": "int256"
        },
        {
          "internalType": "bool",
          "name": "valid",
          "type": "bool"
        }
      ],
      "stateMutability": "view",
      "type": "function"
    },
    {
      "inputs": [],
      "name": "fetchCurators",
      "outputs": [
        {
          "internalType": "address[]",
          "name": "",
          "type": "address[]"
        }
      ],
      "stateMutability": "view",
      "type": "function"
    }
  ],
  "bytecode": "0x60806040523480156200001157600080fd5b506040518060400160405280600a81526020017f547265652050726f6f66000000000000000000000000000000000000000000008152506040518060400160405280600481526020017f5452454500000000000000000000000000000000000000000000000000000000815250816003908051906020019062000096929190620004ce565b508060049080519060200190620000af929190620004ce565b505050620000e133620000c7620001ac60201b60201c565b600a620000d5919062000718565b620001b560201b60201c565b33600560006101000a81548173ffffffffffffffffffffffffffffffffffffffff021916908373ffffffffffffffffffffffffffffffffffffffff1602179055506000600681905550600a60009080600181540180825580915050600190039060005260206000200160009091909190916101000a81548173ffffffffffffffffffffffffffffffffffffffff021916908373ffffffffffffffffffffffffffffffffffffffff1602179055506200019e6200032e60201b60201c565b60016007819055506200093e565b60006012905090565b600073ffffffffffffffffffffffffffffffffffffffff168273ffffffffffffffffffffffffffffffffffffffff16141562000228576040517f08c379a00000000000000000000000000000000000000000000000000000000081526004016200021f90620007ca565b60405180910390fd5b6200023c600083836200042c60201b60201c565b8060026000828254620002509190620007ec565b92505081905550806000808473ffffffffffffffffffffffffffffffffffffffff1673ffffffffffffffffffffffffffffffffffffffff1681526020019081526020016000206000828254620002a79190620007ec565b925050819055508173ffffffffffffffffffffffffffffffffffffffff16600073ffffffffffffffffffffffffffffffffffffffff167fddf252ad1be2c89b69c2b068fc378daa952ba7f163c4a11628f55a4df523b3ef836040516200030e91906200085a565b60405180910390a36200032a600083836200043160201b60201c565b5050565b6200033f336200043660201b60201c565b6200042a57600a80549050600960003373ffffffffffffffffffffffffffffffffffffffff1673ffffffffffffffffffffffffffffffffffffffff16815260200190815260200160002081905550600a339080600181540180825580915050600190039060005260206000200160009091909190916101000a81548173ffffffffffffffffffffffffffffffffffffffff021916908373ffffffffffffffffffffffffffffffffffffffff1602179055507f0c376c0a3e1c9b595b191ba5eed1017640dbf72ac537036ffb199ee7e334ea0433604051620004219190620008bc565b60405180910390a15b565b505050565b505050565b60008073ffffffffffffffffffffffffffffffffffffffff168273ffffffffffffffffffffffffffffffffffffffff1614158015620004b457506000600960008473ffffffffffffffffffffffffffffffffffffffff1673ffffffffffffffffffffffffffffffffffffffff16815260200190815260200160002054115b15620004c45760019050620004c9565b600090505b919050565b828054620004dc9062000908565b90600052602060002090601f0160209004810192826200050057600085556200054c565b82601f106200051b57805160ff19168380011785556200054c565b828001600101855582156200054c579182015b828111156200054b5782518255916020019190600101906200052e565b5b5090506200055b91906200055f565b5090565b5b808211156200057a57600081600090555060010162000560565b5090565b7f4e487b7100000000000000000000000000000000000000000000000000000000600052601160045260246000fd5b60008160011c9050919050565b6000808291508390505b60018511156200060c57808604811115620005e457620005e36200057e565b5b6001851615620005f45780820291505b80810290506200060485620005ad565b9450620005c4565b94509492505050565b600082620006275760019050620006fa565b81620006375760009050620006fa565b81600181146200065057600281146200065b5762000691565b6001915050620006fa565b60ff84111562000670576200066f6200057e565b5b8360020a9150848211156200068a57620006896200057e565b5b50620006fa565b5060208310610133831016604e8410600b8410161715620006cb5782820a905083811115620006c557620006c46200057e565b5b620006fa565b620006da8484846001620005ba565b92509050818404811115620006f457620006f36200057e565b5b81810290505b9392505050565b6000819050919050565b600060ff82169050919050565b6000620007258262000701565b915062000732836200070b565b9250620007617fffffffffffffffffffffffffffffffffffffffffffffffffffffffffffffffff848462000615565b905092915050565b600082825260208201905092915050565b7f45524332303a206d696e7420746f20746865207a65726f206164647265737300600082015250565b6000620007b2601f8362000769565b9150620007bf826200077a565b602082019050919050565b60006020820190508181036000830152620007e581620007a3565b9050919050565b6000620007f98262000701565b9150620008068362000701565b9250827fffffffffffffffffffffffffffffffffffffffffffffffffffffffffffffffff038211156200083e576200083d6200057e565b5b828201905092915050565b620008548162000701565b82525050565b600060208201905062000871600083018462000849565b92915050565b600073ffffffffffffffffffffffffffffffffffffffff82169050919050565b6000620008a48262000877565b9050919050565b620008b68162000897565b82525050565b6000602082019050620008d36000830184620008ab565b92915050565b7f4e487b7100000000000000000000000000000000000000000000000000000000600052602260045260246000fd5b600060028204905060018216806200092157607f821691505b60208210811415620009385762000937620008d9565b5b50919050565b61342a806200094e6000396000f3fe608060405234801561001057600080fd5b50600436106101585760003560e01c806370a08231116100c3578063a9059cbb1161007c578063a9059cbb14610401578063d220047814610431578063dd62ed3e1461044d578063dff434341461047d578063e246ae0c146104ad578063fea3b6c3146104dd57610158565b806370a08231146103295780637dcdeaad146103595780637ffa169b146103775780638da5cb5b1461039557806395d89b41146103b3578063a457c2d7146103d157610158565b80632bb43b22116101155780632bb43b221461021f578063313ce5671461024f578063395093511461026d5780633c32b2131461029d578063428075d8146102d55780635e9fffc3146102f157610158565b806301e48b081461015d57806306fdde0314610167578063095ea7b31461018557806318160ddd146101b557806323b872dd146101d35780632b66d72e14610203575b600080fd5b6101656104fb565b005b61016f6105ee565b60405161017c91906120ef565b60405180910390f35b61019f600480360381019061019a91906121b9565b610680565b6040516101ac9190612214565b60405180910390f35b6101bd61069e565b6040516101ca919061223e565b60405180910390f35b6101ed60048036038101906101e89190612259565b6106a8565b6040516101fa9190612214565b60405180910390f35b61021d600480360381019061021891906123e1565b6107a0565b005b6102396004803603810190610234919061242a565b6109ca565b6040516102469190612214565b60405180910390f35b610257610a5f565b6040516102649190612473565b60405180910390f35b610287600480360381019061028291906121b9565b610a68565b6040516102949190612214565b60405180910390f35b6102b760048036038101906102b291906123e1565b610b14565b6040516102cc999897969594939291906124c8565b60405180910390f35b6102ef60048036038101906102ea91906125bb565b610e0e565b005b61030b600480360381019061030691906123e1565b6111ed565b604051610320999897969594939291906126fd565b60405180910390f35b610343600480360381019061033e919061242a565b6113c8565b604051610350919061223e565b60405180910390f35b610361611410565b60405161036e9190612856565b60405180910390f35b61037f61149e565b60405161038c919061223e565b60405180910390f35b61039d6114a4565b6040516103aa9190612887565b60405180910390f35b6103bb6114ca565b6040516103c891906120ef565b60405180910390f35b6103eb60048036038101906103e691906121b9565b61155c565b6040516103f89190612214565b60405180910390f35b61041b600480360381019061041691906121b9565b611647565b6040516104289190612214565b60405180910390f35b61044b600480360381019061044691906128a2565b611665565b005b6104676004803603810190610462919061291a565b611868565b604051610474919061223e565b60405180910390f35b6104976004803603810190610492919061295a565b6118ef565b6040516104a49190612887565b60405180910390f35b6104c760048036038101906104c2919061295a565b61192e565b6040516104d49190612887565b60405180910390f35b6104e56119b8565b6040516104f2919061223e565b60405180910390f35b610504336109ca565b6105ec57600a80549050600960003373ffffffffffffffffffffffffffffffffffffffff1673ffffffffffffffffffffffffffffffffffffffff16815260200190815260200160002081905550600a339080600181540180825580915050600190039060005260206000200160009091909190916101000a81548173ffffffffffffffffffffffffffffffffffffffff021916908373ffffffffffffffffffffffffffffffffffffffff1602179055507f0c376c0a3e1c9b595b191ba5eed1017640dbf72ac537036ffb199ee7e334ea04336040516105e39190612887565b60405180910390a15b565b6060600380546105fd906129b6565b80601f0160208091040260200160405190810160405280929190818152602001828054610629906129b6565b80156106765780601f1061064b57610100808354040283529160200191610676565b820191906000526020600020905b81548152906001019060200180831161065957829003601f168201915b5050505050905090565b600061069461068d6119be565b84846119c6565b6001905092915050565b6000600254905090565b60006106b5848484611b91565b6000600160008673ffffffffffffffffffffffffffffffffffffffff1673ffffffffffffffffffffffffffffffffffffffff16815260200190815260200160002060006107006119be565b73ffffffffffffffffffffffffffffffffffffffff1673ffffffffffffffffffffffffffffffffffffffff16815260200190815260200160002054905082811015610780576040517f08c379a000000000000000000000000000000000000000000000000000000000815260040161077790612a5a565b60405180910390fd5b6107948561078c6119be565b8584036119c6565b60019150509392505050565b806008816040516107b19190612ab6565b908152602001604051809103902060000160009054906101000a900473ffffffffffffffffffffffffffffffffffffffff1673ffffffffffffffffffffffffffffffffffffffff163373ffffffffffffffffffffffffffffffffffffffff1614610850576040517f08c379a000000000000000000000000000000000000000000000000000000000815260040161084790612b3f565b60405180910390fd5b81600160028111156108655761086461263e565b5b6008826040516108759190612ab6565b908152602001604051809103902060040160009054906101000a900460ff1660028111156108a6576108a561263e565b5b146108e6576040517f08c379a00000000000000000000000000000000000000000000000000000000081526004016108dd90612bab565b60405180910390fd5b60006008846040516108f89190612ab6565b908152602001604051809103902060040160006101000a81548160ff0219169083600281111561092b5761092a61263e565b5b021790555061098e6008846040516109439190612ab6565b908152602001604051809103902060010160009054906101000a900473ffffffffffffffffffffffffffffffffffffffff1661097d610a5f565b600a6109899190612d2d565b611e12565b7ff2124d6f42dc40ed151ce91c6fa158c37efc76105a6da22528a5ea0fe1613ea6836040516109bd91906120ef565b60405180910390a1505050565b60008073ffffffffffffffffffffffffffffffffffffffff168273ffffffffffffffffffffffffffffffffffffffff1614158015610a4757506000600960008473ffffffffffffffffffffffffffffffffffffffff1673ffffffffffffffffffffffffffffffffffffffff16815260200190815260200160002054115b15610a555760019050610a5a565b600090505b919050565b60006012905090565b6000610b0a610a756119be565b848460016000610a836119be565b73ffffffffffffffffffffffffffffffffffffffff1673ffffffffffffffffffffffffffffffffffffffff16815260200190815260200160002060008873ffffffffffffffffffffffffffffffffffffffff1673ffffffffffffffffffffffffffffffffffffffff16815260200190815260200160002054610b059190612d78565b6119c6565b6001905092915050565b600080606080600080600080600060088a604051610b329190612ab6565b908152602001604051809103902060000160009054906101000a900473ffffffffffffffffffffffffffffffffffffffff16985060088a604051610b769190612ab6565b908152602001604051809103902060010160009054906101000a900473ffffffffffffffffffffffffffffffffffffffff16975060088a604051610bba9190612ab6565b90815260200160405180910390206002018054610bd6906129b6565b80601f0160208091040260200160405190810160405280929190818152602001828054610c02906129b6565b8015610c4f5780601f10610c2457610100808354040283529160200191610c4f565b820191906000526020600020905b815481529060010190602001808311610c3257829003601f168201915b5050505050965060088a604051610c669190612ab6565b90815260200160405180910390206003018054610c82906129b6565b80601f0160208091040260200160405190810160405280929190818152602001828054610cae906129b6565b8015610cfb5780601f10610cd057610100808354040283529160200191610cfb565b820191906000526020600020905b815481529060010190602001808311610cde57829003601f168201915b5050505050955060088a604051610d129190612ab6565b908152602001604051809103902060040160009054906101000a900460ff166002811115610d4357610d4261263e565b5b945060088a604051610d559190612ab6565b908152602001604051809103902060040160019054906101000a900460ff166001811115610d8657610d8561263e565b5b935060088a604051610d989190612ab6565b908152602001604051809103902060050154925060088a604051610dbc9190612ab6565b908152602001604051809103902060060154915060088a604051610de09190612ab6565b908152602001604051809103902060070160009054906101000a900460ff1690509193959799909294969850565b6001600a8054905011610e56576040517f08c379a0000000000000000000000000000000000000000000000000000000008152600401610e4d90612e40565b60405180910390fd5b828060ff16600180811115610e6e57610e6d61263e565b5b1015610eaf576040517f08c379a0000000000000000000000000000000000000000000000000000000008152600401610ea690612eac565b60405180910390fd5b84600881604051610ec09190612ab6565b908152602001604051809103902060070160009054906101000a900460ff1615610f1f576040517f08c379a0000000000000000000000000000000000000000000000000000000008152600401610f1690612f18565b60405180910390fd5b3373ffffffffffffffffffffffffffffffffffffffff16610f4160075461192e565b73ffffffffffffffffffffffffffffffffffffffff161415610f6657610f65611f72565b5b604051806101200160405280610f7d60075461192e565b73ffffffffffffffffffffffffffffffffffffffff1681526020013373ffffffffffffffffffffffffffffffffffffffff16815260200187815260200160405180602001604052806000815250815260200160016002811115610fe357610fe261263e565b5b81526020018660ff166001811115610ffe57610ffd61263e565b5b60018111156110105761100f61263e565b5b8152602001858152602001848152602001600115158152506008876040516110389190612ab6565b908152602001604051809103902060008201518160000160006101000a81548173ffffffffffffffffffffffffffffffffffffffff021916908373ffffffffffffffffffffffffffffffffffffffff16021790555060208201518160010160006101000a81548173ffffffffffffffffffffffffffffffffffffffff021916908373ffffffffffffffffffffffffffffffffffffffff16021790555060408201518160020190805190602001906110f0929190611fb3565b50606082015181600301908051906020019061110d929190611fb3565b5060808201518160040160006101000a81548160ff021916908360028111156111395761113861263e565b5b021790555060a08201518160040160016101000a81548160ff021916908360018111156111695761116861263e565b5b021790555060c0820151816005015560e082015181600601556101008201518160070160006101000a81548160ff0219169083151502179055509050506111ae611f72565b7fe16630a153f61c33e5b1130c549b4183bc47576ac9fe4fc0514ffb34530c8522866040516111dd91906120ef565b60405180910390a1505050505050565b6008818051602081018201805184825260208301602085012081835280955050505050506000915090508060000160009054906101000a900473ffffffffffffffffffffffffffffffffffffffff16908060010160009054906101000a900473ffffffffffffffffffffffffffffffffffffffff1690806002018054611272906129b6565b80601f016020809104026020016040519081016040528092919081815260200182805461129e906129b6565b80156112eb5780601f106112c0576101008083540402835291602001916112eb565b820191906000526020600020905b8154815290600101906020018083116112ce57829003601f168201915b505050505090806003018054611300906129b6565b80601f016020809104026020016040519081016040528092919081815260200182805461132c906129b6565b80156113795780601f1061134e57610100808354040283529160200191611379565b820191906000526020600020905b81548152906001019060200180831161135c57829003601f168201915b5050505050908060040160009054906101000a900460ff16908060040160019054906101000a900460ff16908060050154908060060154908060070160009054906101000a900460ff16905089565b60008060008373ffffffffffffffffffffffffffffffffffffffff1673ffffffffffffffffffffffffffffffffffffffff168152602001908152602001600020549050919050565b6060600a80548060200260200160405190810160405280929190818152602001828054801561149457602002820191906000526020600020905b8160009054906101000a900473ffffffffffffffffffffffffffffffffffffffff1673ffffffffffffffffffffffffffffffffffffffff168152602001906001019080831161144a575b5050505050905090565b60075481565b600560009054906101000a900473ffffffffffffffffffffffffffffffffffffffff1681565b6060600480546114d9906129b6565b80601f0160208091040260200160405190810160405280929190818152602001828054611505906129b6565b80156115525780601f1061152757610100808354040283529160200191611552565b820191906000526020600020905b81548152906001019060200180831161153557829003601f168201915b5050505050905090565b6000806001600061156b6119be565b73ffffffffffffffffffffffffffffffffffffffff1673ffffffffffffffffffffffffffffffffffffffff16815260200190815260200160002060008573ffffffffffffffffffffffffffffffffffffffff1673ffffffffffffffffffffffffffffffffffffffff16815260200190815260200160002054905082811015611628576040517f08c379a000000000000000000000000000000000000000000000000000000000815260040161161f90612faa565b60405180910390fd5b61163c6116336119be565b858584036119c6565b600191505092915050565b600061165b6116546119be565b8484611b91565b6001905092915050565b816008816040516116769190612ab6565b908152602001604051809103902060000160009054906101000a900473ffffffffffffffffffffffffffffffffffffffff1673ffffffffffffffffffffffffffffffffffffffff163373ffffffffffffffffffffffffffffffffffffffff1614611715576040517f08c379a000000000000000000000000000000000000000000000000000000000815260040161170c90612b3f565b60405180910390fd5b826001600281111561172a5761172961263e565b5b60088260405161173a9190612ab6565b908152602001604051809103902060040160009054906101000a900460ff16600281111561176b5761176a61263e565b5b146117ab576040517f08c379a00000000000000000000000000000000000000000000000000000000081526004016117a290612bab565b60405180910390fd5b60026008856040516117bd9190612ab6565b908152602001604051809103902060040160006101000a81548160ff021916908360028111156117f0576117ef61263e565b5b0217905550826008856040516118069190612ab6565b9081526020016040518091039020600301908051906020019061182a929190611fb3565b507fce2218b12ed5963aef2044d11653ede961f3cb3aec1f74518a09f14184d3caf68460405161185a91906120ef565b60405180910390a150505050565b6000600160008473ffffffffffffffffffffffffffffffffffffffff1673ffffffffffffffffffffffffffffffffffffffff16815260200190815260200160002060008373ffffffffffffffffffffffffffffffffffffffff1673ffffffffffffffffffffffffffffffffffffffff16815260200190815260200160002054905092915050565b600a81815481106118ff57600080fd5b906000526020600020016000915054906101000a900473ffffffffffffffffffffffffffffffffffffffff1681565b6000808211611972576040517f08c379a000000000000000000000000000000000000000000000000000000000815260040161196990613016565b60405180910390fd5b600a828154811061198657611985613036565b5b9060005260206000200160009054906101000a900473ffffffffffffffffffffffffffffffffffffffff169050919050565b60065481565b600033905090565b600073ffffffffffffffffffffffffffffffffffffffff168373ffffffffffffffffffffffffffffffffffffffff161415611a36576040517f08c379a0000000000000000000000000000000000000000000000000000000008152600401611a2d906130d7565b60405180910390fd5b600073ffffffffffffffffffffffffffffffffffffffff168273ffffffffffffffffffffffffffffffffffffffff161415611aa6576040517f08c379a0000000000000000000000000000000000000000000000000000000008152600401611a9d90613169565b60405180910390fd5b80600160008573ffffffffffffffffffffffffffffffffffffffff1673ffffffffffffffffffffffffffffffffffffffff16815260200190815260200160002060008473ffffffffffffffffffffffffffffffffffffffff1673ffffffffffffffffffffffffffffffffffffffff168152602001908152602001600020819055508173ffffffffffffffffffffffffffffffffffffffff168373ffffffffffffffffffffffffffffffffffffffff167f8c5be1e5ebec7d5bd14f71427d1e84f3dd0314c0f7b2291e5b200ac8c7c3b92583604051611b84919061223e565b60405180910390a3505050565b600073ffffffffffffffffffffffffffffffffffffffff168373ffffffffffffffffffffffffffffffffffffffff161415611c01576040517f08c379a0000000000000000000000000000000000000000000000000000000008152600401611bf8906131fb565b60405180910390fd5b600073ffffffffffffffffffffffffffffffffffffffff168273ffffffffffffffffffffffffffffffffffffffff161415611c71576040517f08c379a0000000000000000000000000000000000000000000000000000000008152600401611c689061328d565b60405180910390fd5b611c7c838383611fa9565b60008060008573ffffffffffffffffffffffffffffffffffffffff1673ffffffffffffffffffffffffffffffffffffffff16815260200190815260200160002054905081811015611d02576040517f08c379a0000000000000000000000000000000000000000000000000000000008152600401611cf99061331f565b60405180910390fd5b8181036000808673ffffffffffffffffffffffffffffffffffffffff1673ffffffffffffffffffffffffffffffffffffffff16815260200190815260200160002081905550816000808573ffffffffffffffffffffffffffffffffffffffff1673ffffffffffffffffffffffffffffffffffffffff1681526020019081526020016000206000828254611d959190612d78565b925050819055508273ffffffffffffffffffffffffffffffffffffffff168473ffffffffffffffffffffffffffffffffffffffff167fddf252ad1be2c89b69c2b068fc378daa952ba7f163c4a11628f55a4df523b3ef84604051611df9919061223e565b60405180910390a3611e0c848484611fae565b50505050565b600073ffffffffffffffffffffffffffffffffffffffff168273ffffffffffffffffffffffffffffffffffffffff161415611e82576040517f08c379a0000000000000000000000000000000000000000000000000000000008152600401611e799061338b565b60405180910390fd5b611e8e60008383611fa9565b8060026000828254611ea09190612d78565b92505081905550806000808473ffffffffffffffffffffffffffffffffffffffff1673ffffffffffffffffffffffffffffffffffffffff1681526020019081526020016000206000828254611ef59190612d78565b925050819055508173ffffffffffffffffffffffffffffffffffffffff16600073ffffffffffffffffffffffffffffffffffffffff167fddf252ad1be2c89b69c2b068fc378daa952ba7f163c4a11628f55a4df523b3ef83604051611f5a919061223e565b60405180910390a3611f6e60008383611fae565b5050565b600a805490506007541415611f8e576001600781905550611fa7565b60076000815480929190611fa1906133ab565b91905055505b565b505050565b505050565b828054611fbf906129b6565b90600052602060002090601f016020900481019282611fe15760008555612028565b82601f10611ffa57805160ff1916838001178555612028565b82800160010185558215612028579182015b8281111561202757825182559160200191906001019061200c565b5b5090506120359190612039565b5090565b5b8082111561205257600081600090555060010161203a565b5090565b600081519050919050565b600082825260208201905092915050565b60005b83811015612090578082015181840152602081019050612075565b8381111561209f576000848401525b50505050565b6000601f19601f8301169050919050565b60006120c182612056565b6120cb8185612061565b93506120db818560208601612072565b6120e4816120a5565b840191505092915050565b6000602082019050818103600083015261210981846120b6565b905092915050565b6000604051905090565b600080fd5b600080fd5b600073ffffffffffffffffffffffffffffffffffffffff82169050919050565b600061215082612125565b9050919050565b61216081612145565b811461216b57600080fd5b50565b60008135905061217d81612157565b92915050565b6000819050919050565b61219681612183565b81146121a157600080fd5b50565b6000813590506121b38161218d565b92915050565b600080604083850312156121d0576121cf61211b565b5b60006121de8582860161216e565b92505060206121ef858286016121a4565b9150509250929050565b60008115159050919050565b61220e816121f9565b82525050565b60006020820190506122296000830184612205565b92915050565b61223881612183565b82525050565b6000602082019050612253600083018461222f565b92915050565b6000806000606084860312156122725761227161211b565b5b60006122808682870161216e565b93505060206122918682870161216e565b92505060406122a2868287016121a4565b9150509250925092565b600080fd5b600080fd5b7f4e487b7100000000000000000000000000000000000000000000000000000000600052604160045260246000fd5b6122ee826120a5565b810181811067ffffffffffffffff8211171561230d5761230c6122b6565b5b80604052505050565b6000612320612111565b905061232c82826122e5565b919050565b600067ffffffffffffffff82111561234c5761234b6122b6565b5b612355826120a5565b9050602081019050919050565b82818337600083830152505050565b600061238461237f84612331565b612316565b9050828152602081018484840111156123a05761239f6122b1565b5b6123ab848285612362565b509392505050565b600082601f8301126123c8576123c76122ac565b5b81356123d8848260208601612371565b91505092915050565b6000602082840312156123f7576123f661211b565b5b600082013567ffffffffffffffff81111561241557612414612120565b5b612421848285016123b3565b91505092915050565b6000602082840312156124405761243f61211b565b5b600061244e8482850161216e565b91505092915050565b600060ff82169050919050565b61246d81612457565b82525050565b60006020820190506124886000830184612464565b92915050565b600061249982612125565b9050919050565b6124a98161248e565b82525050565b6000819050919050565b6124c2816124af565b82525050565b6000610120820190506124de600083018c6124a0565b6124eb602083018b6124a0565b81810360408301526124fd818a6120b6565b9050818103606083015261251181896120b6565b90506125206080830188612464565b61252d60a0830187612464565b61253a60c08301866124b9565b61254760e08301856124b9565b612555610100830184612205565b9a9950505050505050505050565b61256c81612457565b811461257757600080fd5b50565b60008135905061258981612563565b92915050565b612598816124af565b81146125a357600080fd5b50565b6000813590506125b58161258f565b92915050565b600080600080608085870312156125d5576125d461211b565b5b600085013567ffffffffffffffff8111156125f3576125f2612120565b5b6125ff878288016123b3565b94505060206126108782880161257a565b9350506040612621878288016125a6565b9250506060612632878288016125a6565b91505092959194509250565b7f4e487b7100000000000000000000000000000000000000000000000000000000600052602160045260246000fd5b6003811061267e5761267d61263e565b5b50565b600081905061268f8261266d565b919050565b600061269f82612681565b9050919050565b6126af81612694565b82525050565b600281106126c6576126c561263e565b5b50565b60008190506126d7826126b5565b919050565b60006126e7826126c9565b9050919050565b6126f7816126dc565b82525050565b600061012082019050612713600083018c6124a0565b612720602083018b6124a0565b8181036040830152612732818a6120b6565b9050818103606083015261274681896120b6565b905061275560808301886126a6565b61276260a08301876126ee565b61276f60c08301866124b9565b61277c60e08301856124b9565b61278a610100830184612205565b9a9950505050505050505050565b600081519050919050565b600082825260208201905092915050565b6000819050602082019050919050565b6127cd81612145565b82525050565b60006127df83836127c4565b60208301905092915050565b6000602082019050919050565b600061280382612798565b61280d81856127a3565b9350612818836127b4565b8060005b8381101561284957815161283088826127d3565b975061283b836127eb565b92505060018101905061281c565b5085935050505092915050565b6000602082019050818103600083015261287081846127f8565b905092915050565b61288181612145565b82525050565b600060208201905061289c6000830184612878565b92915050565b600080604083850312156128b9576128b861211b565b5b600083013567ffffffffffffffff8111156128d7576128d6612120565b5b6128e3858286016123b3565b925050602083013567ffffffffffffffff81111561290457612903612120565b5b612910858286016123b3565b9150509250929050565b600080604083850312156129315761293061211b565b5b600061293f8582860161216e565b92505060206129508582860161216e565b9150509250929050565b6000602082840312156129705761296f61211b565b5b600061297e848285016121a4565b91505092915050565b7f4e487b7100000000000000000000000000000000000000000000000000000000600052602260045260246000fd5b600060028204905060018216806129ce57607f821691505b602082108114156129e2576129e1612987565b5b50919050565b7f45524332303a207472616e7366657220616d6f756e742065786365656473206160008201527f6c6c6f77616e6365000000000000000000000000000000000000000000000000602082015250565b6000612a44602883612061565b9150612a4f826129e8565b604082019050919050565b60006020820190508181036000830152612a7381612a37565b9050919050565b600081905092915050565b6000612a9082612056565b612a9a8185612a7a565b9350612aaa818560208601612072565b80840191505092915050565b6000612ac28284612a85565b915081905092915050565b7f4f6e6c7920746865207472656527732043757261746f722063616e2063616c6c60008201527f20746869732066756e6374696f6e2e0000000000000000000000000000000000602082015250565b6000612b29602f83612061565b9150612b3482612acd565b604082019050919050565b60006020820190508181036000830152612b5881612b1c565b9050919050565b7f546869732074726565206973206e6f742050656e64696e672e00000000000000600082015250565b6000612b95601983612061565b9150612ba082612b5f565b602082019050919050565b60006020820190508181036000830152612bc481612b88565b9050919050565b7f4e487b7100000000000000000000000000000000000000000000000000000000600052601160045260246000fd5b60008160011c9050919050565b6000808291508390505b6001851115612c5157808604811115612c2d57612c2c612bcb565b5b6001851615612c3c5780820291505b8081029050612c4a85612bfa565b9450612c11565b94509492505050565b600082612c6a5760019050612d26565b81612c785760009050612d26565b8160018114612c8e5760028114612c9857612cc7565b6001915050612d26565b60ff841115612caa57612ca9612bcb565b5b8360020a915084821115612cc157612cc0612bcb565b5b50612d26565b5060208310610133831016604e8410600b8410161715612cfc5782820a905083811115612cf757612cf6612bcb565b5b612d26565b612d098484846001612c07565b92509050818404811115612d2057612d1f612bcb565b5b81810290505b9392505050565b6000612d3882612183565b9150612d4383612457565b9250612d707fffffffffffffffffffffffffffffffffffffffffffffffffffffffffffffffff8484612c5a565b905092915050565b6000612d8382612183565b9150612d8e83612183565b9250827fffffffffffffffffffffffffffffffffffffffffffffffffffffffffffffffff03821115612dc357612dc2612bcb565b5b828201905092915050565b7f546865726520617265206e6f7420616e792063757261746f727320746f20726560008201527f7669657720746869732074726565207375626d697373696f6e00000000000000602082015250565b6000612e2a603983612061565b9150612e3582612dce565b604082019050919050565b60006020820190508181036000830152612e5981612e1d565b9050919050565b7f7468697320747265652074797065206973206e6f742076616c69640000000000600082015250565b6000612e96601b83612061565b9150612ea182612e60565b602082019050919050565b60006020820190508181036000830152612ec581612e89565b9050919050565b7f7468697320747265652073686120616c72656164792065786973747300000000600082015250565b6000612f02601c83612061565b9150612f0d82612ecc565b602082019050919050565b60006020820190508181036000830152612f3181612ef5565b9050919050565b7f45524332303a2064656372656173656420616c6c6f77616e63652062656c6f7760008201527f207a65726f000000000000000000000000000000000000000000000000000000602082015250565b6000612f94602583612061565b9150612f9f82612f38565b604082019050919050565b60006020820190508181036000830152612fc381612f87565b9050919050565b7f696e76616c696420706f736974696f6e206f66207a65726f0000000000000000600082015250565b6000613000601883612061565b915061300b82612fca565b602082019050919050565b6000602082019050818103600083015261302f81612ff3565b9050919050565b7f4e487b7100000000000000000000000000000000000000000000000000000000600052603260045260246000fd5b7f45524332303a20617070726f76652066726f6d20746865207a65726f2061646460008201527f7265737300000000000000000000000000000000000000000000000000000000602082015250565b60006130c1602483612061565b91506130cc82613065565b604082019050919050565b600060208201905081810360008301526130f0816130b4565b9050919050565b7f45524332303a20617070726f766520746f20746865207a65726f20616464726560008201527f7373000000000000000000000000000000000000000000000000000000000000602082015250565b6000613153602283612061565b915061315e826130f7565b604082019050919050565b6000602082019050818103600083015261318281613146565b9050919050565b7f45524332303a207472616e736665722066726f6d20746865207a65726f20616460008201527f6472657373000000000000000000000000000000000000000000000000000000602082015250565b60006131e5602583612061565b91506131f082613189565b604082019050919050565b60006020820190508181036000830152613214816131d8565b9050919050565b7f45524332303a207472616e7366657220746f20746865207a65726f206164647260008201527f6573730000000000000000000000000000000000000000000000000000000000602082015250565b6000613277602383612061565b91506132828261321b565b604082019050919050565b600060208201905081810360008301526132a68161326a565b9050919050565b7f45524332303a207472616e7366657220616d6f756e742065786365656473206260008201527f616c616e63650000000000000000000000000000000000000000000000000000602082015250565b6000613309602683612061565b9150613314826132ad565b604082019050919050565b60006020820190508181036000830152613338816132fc565b9050919050565b7f45524332303a206d696e7420746f20746865207a65726f206164647265737300600082015250565b6000613375601f83612061565b91506133808261333f565b602082019050919050565b600060208201905081810360008301526133a481613368565b9050919050565b60006133b682612183565b91507fffffffffffffffffffffffffffffffffffffffffffffffffffffffffffffffff8214156133e9576133e8612bcb565b5b60018201905091905056fea2646970667358221220376e352311a4f3bbb1df8cc386790dc2e1adf750d88971c6c62e052452a9589464736f6c634300080a0033",
  "immutableReferences": {},
  "source": "// SPDX-License-Identifier: MIT\npragma solidity ^0.8.0;\n\nimport \"@openzeppelin/contracts/token/ERC20/ERC20.sol\";\n\ncontract ProofOfTrees is ERC20{\n\n    address public owner;\n    uint256 public treeCount;\n    uint256 public thisCurator;\n\n    //map of unique EXIF hash to determined tree data\n    mapping(string => Tree) public trees;\n\n    mapping (address => uint) curatorIndex;\n    address[] public curators;\n\n    /*\n    Status goes\n    1) Pending (default upon creation)\n    2) Rejected -or- Paid\n    */\n    enum TreeStatus {\n        Paid,\n        Pending,\n        Rejected\n    }\n\n    enum TreeType {\n        Disiduous,\n        Evergreen\n    }\n\n    struct Tree {\n        address payable curator;\n        address payable hippie;\n        string exifSHA;\n        string rejectedReason;\n        TreeStatus tStatus;\n        TreeType tType;\n        int256 lat; //latitude\n        int256 long; //longitude\n        bool valid;\n    }\n\n    /*\n     * Events\n     */\n\n\n    // <LogPaid event: string exifSHA>\n    event LogPaid(string exifSHA);\n\n    // <LogRejected event: string exifSHA>\n    event LogRejected(string exifSHA);\n\n    // <LogPending event: string exifSHA>\n    event LogPending(string exifSHA);\n\n    // <LogCuratorAdded event: address curator>\n    event LogCuratorAdded(address curator);\n\n    /*\n     * Modifiers\n     */\n    modifier isOwner() {\n        require(msg.sender == owner, \"Only the owner can call this function.\");\n        _;\n    }\n\n    modifier isHippie(string memory _exifSHA) {\n        require(\n            msg.sender == trees[_exifSHA].hippie,\n            \"Only the tree's Hippie can call this function.\"\n        );\n        _;\n    }\n\n    modifier isCurator(string memory _exifSHA) {\n        require(\n            msg.sender == trees[_exifSHA].curator,\n            \"Only the tree's Curator can call this function.\"\n        );\n        _;\n    }\n\n    modifier multipleCurators() {\n        require(\n            curators.length > 1,\n            \"There are not any curators to review this tree submission\"\n        );\n        _;\n    }\n\n    modifier verifyCaller(address _address) {\n        require(msg.sender == _address);\n        _;\n    }\n\n    modifier pending(string memory _exifSHA) {\n        require(\n            trees[_exifSHA].tStatus == TreeStatus.Pending,\n            \"This tree is not Pending.\"\n        );\n        _;\n    }\n    modifier paid(string memory _exifSHA) {\n        require(\n            trees[_exifSHA].tStatus == TreeStatus.Paid,\n            \"This tree is not Paid.\"\n        );\n        _;\n    }\n\n    modifier treeUnique(string memory _exifSHA) {\n        require(\n            !trees[_exifSHA].valid, \n            \"this tree sha already exists\"   \n        );\n        _;\n    }\n\n    modifier validTreeType(uint8 _tType) {\n        require(\n            uint(TreeType.Evergreen) >= _tType, \n            \"this tree type is not valid\"   \n        );\n        _;\n    }\n\n    constructor() ERC20(\"Tree Proof\", \"TREE\") {\n        _mint (msg.sender, 10 ** decimals());\n        owner = msg.sender;\n        treeCount = 0;\n        // We will use position 0 to flag invalid address\n        curators.push(address(address(0x0)));\n        becomeCurator();\n        thisCurator = 1;\n    }\n\n    /*\n     * Functions\n     */\n\n    function decrementTreeCount() private {\n        treeCount--;\n    }\n\n    function incrementTreeCount() private {\n        treeCount++;\n    }\n\n    function incrementCurator() private {\n        //since position 0 is invalid address, just use the length \n        if (thisCurator == curators.length) {\n            thisCurator = 1;\n        } else {\n            thisCurator++;\n        }\n    }\n\n    function createTree(\n        string memory _exifSHA,\n        uint8 _tType,\n        int256 _lat,\n        int256 _long\n    ) public multipleCurators() validTreeType(_tType) treeUnique(_exifSHA) {\n\n        //do not let the sender be the curator\n        if (getCuratorPosition(thisCurator) == msg.sender) {\n            incrementCurator();\n        }\n        trees[_exifSHA] = Tree({\n            curator: payable(getCuratorPosition(thisCurator)),\n            //might want a way to validate that the hippie is also not the curator for this tree\n            hippie: payable(msg.sender),\n            exifSHA: _exifSHA,\n            rejectedReason: '',\n            tStatus: TreeStatus.Pending,\n            tType: TreeType(_tType),\n            lat: _lat,\n            long: _long,\n            valid: true\n        });\n        incrementCurator();\n        emit LogPending(_exifSHA);\n    }\n\n    function reject(string memory _exifSHA, string memory _rejectReason)\n        public\n        isCurator(_exifSHA)\n        pending(_exifSHA)\n    {\n        trees[_exifSHA].tStatus = TreeStatus.Rejected;\n        trees[_exifSHA].rejectedReason = _rejectReason;\n        emit LogRejected(_exifSHA);\n    }\n\n    function pay(string memory _exifSHA) public isCurator(_exifSHA) pending(_exifSHA) {\n        trees[_exifSHA].tStatus = TreeStatus.Paid;\n        _mint (trees[_exifSHA].hippie, 10 ** decimals());\n\n        emit LogPaid(_exifSHA);\n\n    }\n\n    function becomeCurator() public {\n        if (!curatorInArray(msg.sender)) {\n            // Append\n            curatorIndex[msg.sender] = curators.length;\n            curators.push(msg.sender);\n            emit LogCuratorAdded(msg.sender);\n        }\n    }\n\n    function curatorInArray(address curator) public view returns (bool) {\n        // address address(address(0x0)) is not valid if pos is 0 is not in the array\n        if (curator != address(address(0x0)) && curatorIndex[curator] > 0) {\n            return true;\n        }\n        return false;\n    }\n\n    function getCuratorPosition(uint256 pos) public view returns (address) {\n        // Position 0 is always an invalid address\n        require(pos > 0, \"invalid position of zero\"); \n        return curators[pos];\n    }\n    \n    function fetchTree(string memory _exifSHA)\n        public\n        view\n        returns (\n            address payable curator,\n            address payable hippie,\n            string memory exifSHA,\n            string memory rejectedReason,\n            uint8 tStatus,\n            uint8 tType,\n            int256 lat,\n            int256 long,\n            bool valid\n        )\n    {\n        curator = trees[_exifSHA].curator;\n        hippie = trees[_exifSHA].hippie;\n        exifSHA = trees[_exifSHA].exifSHA;\n        rejectedReason = trees[_exifSHA].rejectedReason;\n        tStatus = uint8(trees[_exifSHA].tStatus);\n        tType = uint8(trees[_exifSHA].tType);\n        lat = trees[_exifSHA].lat;\n        long = trees[_exifSHA].long;\n        valid = trees[_exifSHA].valid;\n        return (curator, hippie, exifSHA, rejectedReason, tStatus, tType, lat, long, valid);\n    }\n\n\n    function fetchCurators() public view returns(address[] memory) {\n        return curators;\n    }\n}\n",
  "sourcePath": "/Users/Delano/blockchain-developer-bootcamp-final-project/contracts/ProofOfTrees.sol",
  "compiler": {
    "name": "solc",
    "version": "0.8.10+commit.fc410830.Emscripten.clang"
  },
  "schemaVersion": "3.4.3",
  "updatedAt": "2021-11-30T05:14:08.028Z",
  "devdoc": {
    "kind": "dev",
    "methods": {
      "allowance(address,address)": {
        "details": "See {IERC20-allowance}."
      },
      "approve(address,uint256)": {
        "details": "See {IERC20-approve}. Requirements: - `spender` cannot be the zero address."
      },
      "balanceOf(address)": {
        "details": "See {IERC20-balanceOf}."
      },
      "decimals()": {
        "details": "Returns the number of decimals used to get its user representation. For example, if `decimals` equals `2`, a balance of `505` tokens should be displayed to a user as `5.05` (`505 / 10 ** 2`). Tokens usually opt for a value of 18, imitating the relationship between Ether and Wei. This is the value {ERC20} uses, unless this function is overridden; NOTE: This information is only used for _display_ purposes: it in no way affects any of the arithmetic of the contract, including {IERC20-balanceOf} and {IERC20-transfer}."
      },
      "decreaseAllowance(address,uint256)": {
        "details": "Atomically decreases the allowance granted to `spender` by the caller. This is an alternative to {approve} that can be used as a mitigation for problems described in {IERC20-approve}. Emits an {Approval} event indicating the updated allowance. Requirements: - `spender` cannot be the zero address. - `spender` must have allowance for the caller of at least `subtractedValue`."
      },
      "increaseAllowance(address,uint256)": {
        "details": "Atomically increases the allowance granted to `spender` by the caller. This is an alternative to {approve} that can be used as a mitigation for problems described in {IERC20-approve}. Emits an {Approval} event indicating the updated allowance. Requirements: - `spender` cannot be the zero address."
      },
      "name()": {
        "details": "Returns the name of the token."
      },
      "symbol()": {
        "details": "Returns the symbol of the token, usually a shorter version of the name."
      },
      "totalSupply()": {
        "details": "See {IERC20-totalSupply}."
      },
      "transfer(address,uint256)": {
        "details": "See {IERC20-transfer}. Requirements: - `recipient` cannot be the zero address. - the caller must have a balance of at least `amount`."
      },
      "transferFrom(address,address,uint256)": {
        "details": "See {IERC20-transferFrom}. Emits an {Approval} event indicating the updated allowance. This is not required by the EIP. See the note at the beginning of {ERC20}. Requirements: - `sender` and `recipient` cannot be the zero address. - `sender` must have a balance of at least `amount`. - the caller must have allowance for ``sender``'s tokens of at least `amount`."
      }
    },
    "version": 1
  },
  "userdoc": {
    "kind": "user",
    "methods": {},
    "version": 1
  }
}