{
  "contractName": "ProofOfTrees",
  "abi": [
    {
      "inputs": [],
      "stateMutability": "nonpayable",
      "type": "constructor"
    },
    {
      "anonymous": false,
      "inputs": [
        {
          "indexed": true,
          "internalType": "address",
          "name": "owner",
          "type": "address"
        },
        {
          "indexed": true,
          "internalType": "address",
          "name": "spender",
          "type": "address"
        },
        {
          "indexed": false,
          "internalType": "uint256",
          "name": "value",
          "type": "uint256"
        }
      ],
      "name": "Approval",
      "type": "event"
    },
    {
      "anonymous": false,
      "inputs": [
        {
          "indexed": false,
          "internalType": "address",
          "name": "curator",
          "type": "address"
        }
      ],
      "name": "LogCuratorAdded",
      "type": "event"
    },
    {
      "anonymous": false,
      "inputs": [
        {
          "indexed": false,
          "internalType": "string",
          "name": "exifSHA",
          "type": "string"
        }
      ],
      "name": "LogPaid",
      "type": "event"
    },
    {
      "anonymous": false,
      "inputs": [
        {
          "indexed": false,
          "internalType": "string",
          "name": "exifSHA",
          "type": "string"
        }
      ],
      "name": "LogPending",
      "type": "event"
    },
    {
      "anonymous": false,
      "inputs": [
        {
          "indexed": false,
          "internalType": "string",
          "name": "exifSHA",
          "type": "string"
        }
      ],
      "name": "LogRejected",
      "type": "event"
    },
    {
      "anonymous": false,
      "inputs": [
        {
          "indexed": true,
          "internalType": "address",
          "name": "from",
          "type": "address"
        },
        {
          "indexed": true,
          "internalType": "address",
          "name": "to",
          "type": "address"
        },
        {
          "indexed": false,
          "internalType": "uint256",
          "name": "value",
          "type": "uint256"
        }
      ],
      "name": "Transfer",
      "type": "event"
    },
    {
      "inputs": [
        {
          "internalType": "address",
          "name": "owner",
          "type": "address"
        },
        {
          "internalType": "address",
          "name": "spender",
          "type": "address"
        }
      ],
      "name": "allowance",
      "outputs": [
        {
          "internalType": "uint256",
          "name": "",
          "type": "uint256"
        }
      ],
      "stateMutability": "view",
      "type": "function"
    },
    {
      "inputs": [
        {
          "internalType": "address",
          "name": "spender",
          "type": "address"
        },
        {
          "internalType": "uint256",
          "name": "amount",
          "type": "uint256"
        }
      ],
      "name": "approve",
      "outputs": [
        {
          "internalType": "bool",
          "name": "",
          "type": "bool"
        }
      ],
      "stateMutability": "nonpayable",
      "type": "function"
    },
    {
      "inputs": [
        {
          "internalType": "address",
          "name": "account",
          "type": "address"
        }
      ],
      "name": "balanceOf",
      "outputs": [
        {
          "internalType": "uint256",
          "name": "",
          "type": "uint256"
        }
      ],
      "stateMutability": "view",
      "type": "function"
    },
    {
      "inputs": [
        {
          "internalType": "uint256",
          "name": "",
          "type": "uint256"
        }
      ],
      "name": "curators",
      "outputs": [
        {
          "internalType": "address",
          "name": "",
          "type": "address"
        }
      ],
      "stateMutability": "view",
      "type": "function"
    },
    {
      "inputs": [],
      "name": "decimals",
      "outputs": [
        {
          "internalType": "uint8",
          "name": "",
          "type": "uint8"
        }
      ],
      "stateMutability": "view",
      "type": "function"
    },
    {
      "inputs": [
        {
          "internalType": "address",
          "name": "spender",
          "type": "address"
        },
        {
          "internalType": "uint256",
          "name": "subtractedValue",
          "type": "uint256"
        }
      ],
      "name": "decreaseAllowance",
      "outputs": [
        {
          "internalType": "bool",
          "name": "",
          "type": "bool"
        }
      ],
      "stateMutability": "nonpayable",
      "type": "function"
    },
    {
      "inputs": [
        {
          "internalType": "address",
          "name": "spender",
          "type": "address"
        },
        {
          "internalType": "uint256",
          "name": "addedValue",
          "type": "uint256"
        }
      ],
      "name": "increaseAllowance",
      "outputs": [
        {
          "internalType": "bool",
          "name": "",
          "type": "bool"
        }
      ],
      "stateMutability": "nonpayable",
      "type": "function"
    },
    {
      "inputs": [],
      "name": "name",
      "outputs": [
        {
          "internalType": "string",
          "name": "",
          "type": "string"
        }
      ],
      "stateMutability": "view",
      "type": "function"
    },
    {
      "inputs": [],
      "name": "nextCurator",
      "outputs": [
        {
          "internalType": "uint256",
          "name": "",
          "type": "uint256"
        }
      ],
      "stateMutability": "view",
      "type": "function"
    },
    {
      "inputs": [],
      "name": "owner",
      "outputs": [
        {
          "internalType": "address",
          "name": "",
          "type": "address"
        }
      ],
      "stateMutability": "view",
      "type": "function"
    },
    {
      "inputs": [],
      "name": "symbol",
      "outputs": [
        {
          "internalType": "string",
          "name": "",
          "type": "string"
        }
      ],
      "stateMutability": "view",
      "type": "function"
    },
    {
      "inputs": [],
      "name": "totalSupply",
      "outputs": [
        {
          "internalType": "uint256",
          "name": "",
          "type": "uint256"
        }
      ],
      "stateMutability": "view",
      "type": "function"
    },
    {
      "inputs": [
        {
          "internalType": "address",
          "name": "recipient",
          "type": "address"
        },
        {
          "internalType": "uint256",
          "name": "amount",
          "type": "uint256"
        }
      ],
      "name": "transfer",
      "outputs": [
        {
          "internalType": "bool",
          "name": "",
          "type": "bool"
        }
      ],
      "stateMutability": "nonpayable",
      "type": "function"
    },
    {
      "inputs": [
        {
          "internalType": "address",
          "name": "sender",
          "type": "address"
        },
        {
          "internalType": "address",
          "name": "recipient",
          "type": "address"
        },
        {
          "internalType": "uint256",
          "name": "amount",
          "type": "uint256"
        }
      ],
      "name": "transferFrom",
      "outputs": [
        {
          "internalType": "bool",
          "name": "",
          "type": "bool"
        }
      ],
      "stateMutability": "nonpayable",
      "type": "function"
    },
    {
      "inputs": [],
      "name": "treeCount",
      "outputs": [
        {
          "internalType": "uint256",
          "name": "",
          "type": "uint256"
        }
      ],
      "stateMutability": "view",
      "type": "function"
    },
    {
      "inputs": [
        {
          "internalType": "string",
          "name": "",
          "type": "string"
        }
      ],
      "name": "trees",
      "outputs": [
        {
          "internalType": "address payable",
          "name": "curator",
          "type": "address"
        },
        {
          "internalType": "address payable",
          "name": "hippie",
          "type": "address"
        },
        {
          "internalType": "string",
          "name": "exifSHA",
          "type": "string"
        },
        {
          "internalType": "string",
          "name": "rejectedReason",
          "type": "string"
        },
        {
          "internalType": "enum ProofOfTrees.TreeStatus",
          "name": "tStatus",
          "type": "uint8"
        },
        {
          "internalType": "enum ProofOfTrees.TreeType",
          "name": "tType",
          "type": "uint8"
        },
        {
          "internalType": "int256",
          "name": "lat",
          "type": "int256"
        },
        {
          "internalType": "int256",
          "name": "long",
          "type": "int256"
        },
        {
          "internalType": "bool",
          "name": "valid",
          "type": "bool"
        }
      ],
      "stateMutability": "view",
      "type": "function"
    },
    {
      "inputs": [
        {
          "internalType": "string",
          "name": "_exifSHA",
          "type": "string"
        },
        {
          "internalType": "uint8",
          "name": "_tType",
          "type": "uint8"
        },
        {
          "internalType": "int256",
          "name": "_lat",
          "type": "int256"
        },
        {
          "internalType": "int256",
          "name": "_long",
          "type": "int256"
        }
      ],
      "name": "createTree",
      "outputs": [],
      "stateMutability": "nonpayable",
      "type": "function"
    },
    {
      "inputs": [
        {
          "internalType": "string",
          "name": "_exifSHA",
          "type": "string"
        },
        {
          "internalType": "string",
          "name": "_rejectReason",
          "type": "string"
        }
      ],
      "name": "reject",
      "outputs": [],
      "stateMutability": "nonpayable",
      "type": "function"
    },
    {
      "inputs": [
        {
          "internalType": "string",
          "name": "_exifSHA",
          "type": "string"
        }
      ],
      "name": "pay",
      "outputs": [],
      "stateMutability": "nonpayable",
      "type": "function"
    },
    {
      "inputs": [],
      "name": "becomeCurator",
      "outputs": [],
      "stateMutability": "nonpayable",
      "type": "function"
    },
    {
      "inputs": [
        {
          "internalType": "address",
          "name": "curator",
          "type": "address"
        }
      ],
      "name": "curatorInArray",
      "outputs": [
        {
          "internalType": "bool",
          "name": "",
          "type": "bool"
        }
      ],
      "stateMutability": "view",
      "type": "function"
    },
    {
      "inputs": [
        {
          "internalType": "uint256",
          "name": "position",
          "type": "uint256"
        }
      ],
      "name": "getCuratorAtPosition",
      "outputs": [
        {
          "internalType": "address",
          "name": "",
          "type": "address"
        }
      ],
      "stateMutability": "view",
      "type": "function"
    },
    {
      "inputs": [
        {
          "internalType": "string",
          "name": "_exifSHA",
          "type": "string"
        }
      ],
      "name": "fetchTree",
      "outputs": [
        {
          "internalType": "address payable",
          "name": "curator",
          "type": "address"
        },
        {
          "internalType": "address payable",
          "name": "hippie",
          "type": "address"
        },
        {
          "internalType": "string",
          "name": "exifSHA",
          "type": "string"
        },
        {
          "internalType": "string",
          "name": "rejectedReason",
          "type": "string"
        },
        {
          "internalType": "uint8",
          "name": "tStatus",
          "type": "uint8"
        },
        {
          "internalType": "uint8",
          "name": "tType",
          "type": "uint8"
        },
        {
          "internalType": "int256",
          "name": "lat",
          "type": "int256"
        },
        {
          "internalType": "int256",
          "name": "long",
          "type": "int256"
        },
        {
          "internalType": "bool",
          "name": "valid",
          "type": "bool"
        }
      ],
      "stateMutability": "view",
      "type": "function"
    },
    {
      "inputs": [],
      "name": "fetchCurators",
      "outputs": [
        {
          "internalType": "address[]",
          "name": "",
          "type": "address[]"
        }
      ],
      "stateMutability": "view",
      "type": "function"
    }
  ],
  "bytecode": "0x60806040523480156200001157600080fd5b506040518060400160405280600e81526020017f50726f6f66206f662054726565730000000000000000000000000000000000008152506040518060400160405280600481526020017f54524545000000000000000000000000000000000000000000000000000000008152508160039080519060200190620000969291906200050b565b508060049080519060200190620000af9291906200050b565b505050620000e133620000c7620001ac60201b60201c565b600a620000d5919062000755565b620001b560201b60201c565b33600560006101000a81548173ffffffffffffffffffffffffffffffffffffffff021916908373ffffffffffffffffffffffffffffffffffffffff1602179055506000600681905550600a60009080600181540180825580915050600190039060005260206000200160009091909190916101000a81548173ffffffffffffffffffffffffffffffffffffffff021916908373ffffffffffffffffffffffffffffffffffffffff1602179055506200019e6200032e60201b60201c565b6001600781905550620009ed565b60006012905090565b600073ffffffffffffffffffffffffffffffffffffffff168273ffffffffffffffffffffffffffffffffffffffff16141562000228576040517f08c379a00000000000000000000000000000000000000000000000000000000081526004016200021f9062000807565b60405180910390fd5b6200023c600083836200046960201b60201c565b806002600082825462000250919062000829565b92505081905550806000808473ffffffffffffffffffffffffffffffffffffffff1673ffffffffffffffffffffffffffffffffffffffff1681526020019081526020016000206000828254620002a7919062000829565b925050819055508173ffffffffffffffffffffffffffffffffffffffff16600073ffffffffffffffffffffffffffffffffffffffff167fddf252ad1be2c89b69c2b068fc378daa952ba7f163c4a11628f55a4df523b3ef836040516200030e919062000897565b60405180910390a36200032a600083836200046e60201b60201c565b5050565b6200033f336200047360201b60201c565b1562000382576040517f08c379a0000000000000000000000000000000000000000000000000000000008152600401620003799062000904565b60405180910390fd5b600a80549050600960003373ffffffffffffffffffffffffffffffffffffffff1673ffffffffffffffffffffffffffffffffffffffff16815260200190815260200160002081905550600a339080600181540180825580915050600190039060005260206000200160009091909190916101000a81548173ffffffffffffffffffffffffffffffffffffffff021916908373ffffffffffffffffffffffffffffffffffffffff1602179055507f0c376c0a3e1c9b595b191ba5eed1017640dbf72ac537036ffb199ee7e334ea04336040516200045f91906200096b565b60405180910390a1565b505050565b505050565b60008073ffffffffffffffffffffffffffffffffffffffff168273ffffffffffffffffffffffffffffffffffffffff1614158015620004f157506000600960008473ffffffffffffffffffffffffffffffffffffffff1673ffffffffffffffffffffffffffffffffffffffff16815260200190815260200160002054115b1562000501576001905062000506565b600090505b919050565b8280546200051990620009b7565b90600052602060002090601f0160209004810192826200053d576000855562000589565b82601f106200055857805160ff191683800117855562000589565b8280016001018555821562000589579182015b82811115620005885782518255916020019190600101906200056b565b5b5090506200059891906200059c565b5090565b5b80821115620005b75760008160009055506001016200059d565b5090565b7f4e487b7100000000000000000000000000000000000000000000000000000000600052601160045260246000fd5b60008160011c9050919050565b6000808291508390505b60018511156200064957808604811115620006215762000620620005bb565b5b6001851615620006315780820291505b80810290506200064185620005ea565b945062000601565b94509492505050565b60008262000664576001905062000737565b8162000674576000905062000737565b81600181146200068d57600281146200069857620006ce565b600191505062000737565b60ff841115620006ad57620006ac620005bb565b5b8360020a915084821115620006c757620006c6620005bb565b5b5062000737565b5060208310610133831016604e8410600b8410161715620007085782820a905083811115620007025762000701620005bb565b5b62000737565b620007178484846001620005f7565b92509050818404811115620007315762000730620005bb565b5b81810290505b9392505050565b6000819050919050565b600060ff82169050919050565b600062000762826200073e565b91506200076f8362000748565b92506200079e7fffffffffffffffffffffffffffffffffffffffffffffffffffffffffffffffff848462000652565b905092915050565b600082825260208201905092915050565b7f45524332303a206d696e7420746f20746865207a65726f206164647265737300600082015250565b6000620007ef601f83620007a6565b9150620007fc82620007b7565b602082019050919050565b600060208201905081810360008301526200082281620007e0565b9050919050565b600062000836826200073e565b915062000843836200073e565b9250827fffffffffffffffffffffffffffffffffffffffffffffffffffffffffffffffff038211156200087b576200087a620005bb565b5b828201905092915050565b62000891816200073e565b82525050565b6000602082019050620008ae600083018462000886565b92915050565b7f796f752061726520616c726561647920612063757261746f7221000000000000600082015250565b6000620008ec601a83620007a6565b9150620008f982620008b4565b602082019050919050565b600060208201905081810360008301526200091f81620008dd565b9050919050565b600073ffffffffffffffffffffffffffffffffffffffff82169050919050565b6000620009538262000926565b9050919050565b620009658162000946565b82525050565b60006020820190506200098260008301846200095a565b92915050565b7f4e487b7100000000000000000000000000000000000000000000000000000000600052602260045260246000fd5b60006002820490506001821680620009d057607f821691505b60208210811415620009e757620009e662000988565b5b50919050565b6135d880620009fd6000396000f3fe608060405234801561001057600080fd5b50600436106101585760003560e01c80635c4d97a9116100c3578063a457c2d71161007c578063a457c2d714610401578063a9059cbb14610431578063d220047814610461578063dd62ed3e1461047d578063dff43434146104ad578063fea3b6c3146104dd57610158565b80635c4d97a9146103215780635e9fffc31461033f57806370a08231146103775780637dcdeaad146103a75780638da5cb5b146103c557806395d89b41146103e357610158565b80632b66d72e116101155780632b66d72e146102335780632bb43b221461024f578063313ce5671461027f578063395093511461029d5780633c32b213146102cd578063428075d81461030557610158565b806301e48b081461015d57806306fdde0314610167578063095ea7b31461018557806318160ddd146101b55780631b579343146101d357806323b872dd14610203575b600080fd5b6101656104fb565b005b61016f610629565b60405161017c919061219f565b60405180910390f35b61019f600480360381019061019a9190612269565b6106bb565b6040516101ac91906122c4565b60405180910390f35b6101bd6106d9565b6040516101ca91906122ee565b60405180910390f35b6101ed60048036038101906101e89190612309565b6106e3565b6040516101fa9190612345565b60405180910390f35b61021d60048036038101906102189190612360565b61076d565b60405161022a91906122c4565b60405180910390f35b61024d600480360381019061024891906124e8565b610865565b005b61026960048036038101906102649190612531565b610a8f565b60405161027691906122c4565b60405180910390f35b610287610b24565b604051610294919061257a565b60405180910390f35b6102b760048036038101906102b29190612269565b610b2d565b6040516102c491906122c4565b60405180910390f35b6102e760048036038101906102e291906124e8565b610bd9565b6040516102fc999897969594939291906125cf565b60405180910390f35b61031f600480360381019061031a91906126c2565b610ed3565b005b610329611327565b60405161033691906122ee565b60405180910390f35b610359600480360381019061035491906124e8565b61132d565b60405161036e99989796959493929190612804565b60405180910390f35b610391600480360381019061038c9190612531565b611508565b60405161039e91906122ee565b60405180910390f35b6103af611550565b6040516103bc919061295d565b60405180910390f35b6103cd6115de565b6040516103da9190612345565b60405180910390f35b6103eb611604565b6040516103f8919061219f565b60405180910390f35b61041b60048036038101906104169190612269565b611696565b60405161042891906122c4565b60405180910390f35b61044b60048036038101906104469190612269565b611781565b60405161045891906122c4565b60405180910390f35b61047b6004803603810190610476919061297f565b61179f565b005b610497600480360381019061049291906129f7565b6119a2565b6040516104a491906122ee565b60405180910390f35b6104c760048036038101906104c29190612309565b611a29565b6040516104d49190612345565b60405180910390f35b6104e5611a68565b6040516104f291906122ee565b60405180910390f35b61050433610a8f565b15610544576040517f08c379a000000000000000000000000000000000000000000000000000000000815260040161053b90612a83565b60405180910390fd5b600a80549050600960003373ffffffffffffffffffffffffffffffffffffffff1673ffffffffffffffffffffffffffffffffffffffff16815260200190815260200160002081905550600a339080600181540180825580915050600190039060005260206000200160009091909190916101000a81548173ffffffffffffffffffffffffffffffffffffffff021916908373ffffffffffffffffffffffffffffffffffffffff1602179055507f0c376c0a3e1c9b595b191ba5eed1017640dbf72ac537036ffb199ee7e334ea043360405161061f9190612345565b60405180910390a1565b60606003805461063890612ad2565b80601f016020809104026020016040519081016040528092919081815260200182805461066490612ad2565b80156106b15780601f10610686576101008083540402835291602001916106b1565b820191906000526020600020905b81548152906001019060200180831161069457829003601f168201915b5050505050905090565b60006106cf6106c8611a6e565b8484611a76565b6001905092915050565b6000600254905090565b6000808211610727576040517f08c379a000000000000000000000000000000000000000000000000000000000815260040161071e90612b50565b60405180910390fd5b600a828154811061073b5761073a612b70565b5b9060005260206000200160009054906101000a900473ffffffffffffffffffffffffffffffffffffffff169050919050565b600061077a848484611c41565b6000600160008673ffffffffffffffffffffffffffffffffffffffff1673ffffffffffffffffffffffffffffffffffffffff16815260200190815260200160002060006107c5611a6e565b73ffffffffffffffffffffffffffffffffffffffff1673ffffffffffffffffffffffffffffffffffffffff16815260200190815260200160002054905082811015610845576040517f08c379a000000000000000000000000000000000000000000000000000000000815260040161083c90612c11565b60405180910390fd5b61085985610851611a6e565b858403611a76565b60019150509392505050565b806008816040516108769190612c6d565b908152602001604051809103902060000160009054906101000a900473ffffffffffffffffffffffffffffffffffffffff1673ffffffffffffffffffffffffffffffffffffffff163373ffffffffffffffffffffffffffffffffffffffff1614610915576040517f08c379a000000000000000000000000000000000000000000000000000000000815260040161090c90612cf6565b60405180910390fd5b816001600281111561092a57610929612745565b5b60088260405161093a9190612c6d565b908152602001604051809103902060040160009054906101000a900460ff16600281111561096b5761096a612745565b5b146109ab576040517f08c379a00000000000000000000000000000000000000000000000000000000081526004016109a290612d62565b60405180910390fd5b60006008846040516109bd9190612c6d565b908152602001604051809103902060040160006101000a81548160ff021916908360028111156109f0576109ef612745565b5b0217905550610a53600884604051610a089190612c6d565b908152602001604051809103902060010160009054906101000a900473ffffffffffffffffffffffffffffffffffffffff16610a42610b24565b600a610a4e9190612ee4565b611ec2565b7ff2124d6f42dc40ed151ce91c6fa158c37efc76105a6da22528a5ea0fe1613ea683604051610a82919061219f565b60405180910390a1505050565b60008073ffffffffffffffffffffffffffffffffffffffff168273ffffffffffffffffffffffffffffffffffffffff1614158015610b0c57506000600960008473ffffffffffffffffffffffffffffffffffffffff1673ffffffffffffffffffffffffffffffffffffffff16815260200190815260200160002054115b15610b1a5760019050610b1f565b600090505b919050565b60006012905090565b6000610bcf610b3a611a6e565b848460016000610b48611a6e565b73ffffffffffffffffffffffffffffffffffffffff1673ffffffffffffffffffffffffffffffffffffffff16815260200190815260200160002060008873ffffffffffffffffffffffffffffffffffffffff1673ffffffffffffffffffffffffffffffffffffffff16815260200190815260200160002054610bca9190612f2f565b611a76565b6001905092915050565b600080606080600080600080600060088a604051610bf79190612c6d565b908152602001604051809103902060000160009054906101000a900473ffffffffffffffffffffffffffffffffffffffff16985060088a604051610c3b9190612c6d565b908152602001604051809103902060010160009054906101000a900473ffffffffffffffffffffffffffffffffffffffff16975060088a604051610c7f9190612c6d565b90815260200160405180910390206002018054610c9b90612ad2565b80601f0160208091040260200160405190810160405280929190818152602001828054610cc790612ad2565b8015610d145780601f10610ce957610100808354040283529160200191610d14565b820191906000526020600020905b815481529060010190602001808311610cf757829003601f168201915b5050505050965060088a604051610d2b9190612c6d565b90815260200160405180910390206003018054610d4790612ad2565b80601f0160208091040260200160405190810160405280929190818152602001828054610d7390612ad2565b8015610dc05780601f10610d9557610100808354040283529160200191610dc0565b820191906000526020600020905b815481529060010190602001808311610da357829003601f168201915b5050505050955060088a604051610dd79190612c6d565b908152602001604051809103902060040160009054906101000a900460ff166002811115610e0857610e07612745565b5b945060088a604051610e1a9190612c6d565b908152602001604051809103902060040160019054906101000a900460ff166001811115610e4b57610e4a612745565b5b935060088a604051610e5d9190612c6d565b908152602001604051809103902060050154925060088a604051610e819190612c6d565b908152602001604051809103902060060154915060088a604051610ea59190612c6d565b908152602001604051809103902060070160009054906101000a900460ff1690509193959799909294969850565b6001600a8054905011610f1b576040517f08c379a0000000000000000000000000000000000000000000000000000000008152600401610f1290612ff7565b60405180910390fd5b828060ff16600180811115610f3357610f32612745565b5b1015610f74576040517f08c379a0000000000000000000000000000000000000000000000000000000008152600401610f6b90613063565b60405180910390fd5b84600881604051610f859190612c6d565b908152602001604051809103902060070160009054906101000a900460ff1615610fe4576040517f08c379a0000000000000000000000000000000000000000000000000000000008152600401610fdb906130cf565b60405180910390fd5b3373ffffffffffffffffffffffffffffffffffffffff166110066007546106e3565b73ffffffffffffffffffffffffffffffffffffffff16141561102b5761102a612022565b5b60006110386007546106e3565b90503373ffffffffffffffffffffffffffffffffffffffff168173ffffffffffffffffffffffffffffffffffffffff1614156110a9576040517f08c379a00000000000000000000000000000000000000000000000000000000081526004016110a090613161565b60405180910390fd5b6040518061012001604052808273ffffffffffffffffffffffffffffffffffffffff1681526020013373ffffffffffffffffffffffffffffffffffffffff1681526020018881526020016040518060200160405280600081525081526020016001600281111561111c5761111b612745565b5b81526020018760ff16600181111561113757611136612745565b5b600181111561114957611148612745565b5b8152602001868152602001858152602001600115158152506008886040516111719190612c6d565b908152602001604051809103902060008201518160000160006101000a81548173ffffffffffffffffffffffffffffffffffffffff021916908373ffffffffffffffffffffffffffffffffffffffff16021790555060208201518160010160006101000a81548173ffffffffffffffffffffffffffffffffffffffff021916908373ffffffffffffffffffffffffffffffffffffffff1602179055506040820151816002019080519060200190611229929190612063565b506060820151816003019080519060200190611246929190612063565b5060808201518160040160006101000a81548160ff0219169083600281111561127257611271612745565b5b021790555060a08201518160040160016101000a81548160ff021916908360018111156112a2576112a1612745565b5b021790555060c0820151816005015560e082015181600601556101008201518160070160006101000a81548160ff0219169083151502179055509050506112e7612022565b7fe16630a153f61c33e5b1130c549b4183bc47576ac9fe4fc0514ffb34530c852287604051611316919061219f565b60405180910390a150505050505050565b60075481565b6008818051602081018201805184825260208301602085012081835280955050505050506000915090508060000160009054906101000a900473ffffffffffffffffffffffffffffffffffffffff16908060010160009054906101000a900473ffffffffffffffffffffffffffffffffffffffff16908060020180546113b290612ad2565b80601f01602080910402602001604051908101604052809291908181526020018280546113de90612ad2565b801561142b5780601f106114005761010080835404028352916020019161142b565b820191906000526020600020905b81548152906001019060200180831161140e57829003601f168201915b50505050509080600301805461144090612ad2565b80601f016020809104026020016040519081016040528092919081815260200182805461146c90612ad2565b80156114b95780601f1061148e576101008083540402835291602001916114b9565b820191906000526020600020905b81548152906001019060200180831161149c57829003601f168201915b5050505050908060040160009054906101000a900460ff16908060040160019054906101000a900460ff16908060050154908060060154908060070160009054906101000a900460ff16905089565b60008060008373ffffffffffffffffffffffffffffffffffffffff1673ffffffffffffffffffffffffffffffffffffffff168152602001908152602001600020549050919050565b6060600a8054806020026020016040519081016040528092919081815260200182805480156115d457602002820191906000526020600020905b8160009054906101000a900473ffffffffffffffffffffffffffffffffffffffff1673ffffffffffffffffffffffffffffffffffffffff168152602001906001019080831161158a575b5050505050905090565b600560009054906101000a900473ffffffffffffffffffffffffffffffffffffffff1681565b60606004805461161390612ad2565b80601f016020809104026020016040519081016040528092919081815260200182805461163f90612ad2565b801561168c5780601f106116615761010080835404028352916020019161168c565b820191906000526020600020905b81548152906001019060200180831161166f57829003601f168201915b5050505050905090565b600080600160006116a5611a6e565b73ffffffffffffffffffffffffffffffffffffffff1673ffffffffffffffffffffffffffffffffffffffff16815260200190815260200160002060008573ffffffffffffffffffffffffffffffffffffffff1673ffffffffffffffffffffffffffffffffffffffff16815260200190815260200160002054905082811015611762576040517f08c379a0000000000000000000000000000000000000000000000000000000008152600401611759906131f3565b60405180910390fd5b61177661176d611a6e565b85858403611a76565b600191505092915050565b600061179561178e611a6e565b8484611c41565b6001905092915050565b816008816040516117b09190612c6d565b908152602001604051809103902060000160009054906101000a900473ffffffffffffffffffffffffffffffffffffffff1673ffffffffffffffffffffffffffffffffffffffff163373ffffffffffffffffffffffffffffffffffffffff161461184f576040517f08c379a000000000000000000000000000000000000000000000000000000000815260040161184690612cf6565b60405180910390fd5b826001600281111561186457611863612745565b5b6008826040516118749190612c6d565b908152602001604051809103902060040160009054906101000a900460ff1660028111156118a5576118a4612745565b5b146118e5576040517f08c379a00000000000000000000000000000000000000000000000000000000081526004016118dc90612d62565b60405180910390fd5b60026008856040516118f79190612c6d565b908152602001604051809103902060040160006101000a81548160ff0219169083600281111561192a57611929612745565b5b0217905550826008856040516119409190612c6d565b90815260200160405180910390206003019080519060200190611964929190612063565b507fce2218b12ed5963aef2044d11653ede961f3cb3aec1f74518a09f14184d3caf684604051611994919061219f565b60405180910390a150505050565b6000600160008473ffffffffffffffffffffffffffffffffffffffff1673ffffffffffffffffffffffffffffffffffffffff16815260200190815260200160002060008373ffffffffffffffffffffffffffffffffffffffff1673ffffffffffffffffffffffffffffffffffffffff16815260200190815260200160002054905092915050565b600a8181548110611a3957600080fd5b906000526020600020016000915054906101000a900473ffffffffffffffffffffffffffffffffffffffff1681565b60065481565b600033905090565b600073ffffffffffffffffffffffffffffffffffffffff168373ffffffffffffffffffffffffffffffffffffffff161415611ae6576040517f08c379a0000000000000000000000000000000000000000000000000000000008152600401611add90613285565b60405180910390fd5b600073ffffffffffffffffffffffffffffffffffffffff168273ffffffffffffffffffffffffffffffffffffffff161415611b56576040517f08c379a0000000000000000000000000000000000000000000000000000000008152600401611b4d90613317565b60405180910390fd5b80600160008573ffffffffffffffffffffffffffffffffffffffff1673ffffffffffffffffffffffffffffffffffffffff16815260200190815260200160002060008473ffffffffffffffffffffffffffffffffffffffff1673ffffffffffffffffffffffffffffffffffffffff168152602001908152602001600020819055508173ffffffffffffffffffffffffffffffffffffffff168373ffffffffffffffffffffffffffffffffffffffff167f8c5be1e5ebec7d5bd14f71427d1e84f3dd0314c0f7b2291e5b200ac8c7c3b92583604051611c3491906122ee565b60405180910390a3505050565b600073ffffffffffffffffffffffffffffffffffffffff168373ffffffffffffffffffffffffffffffffffffffff161415611cb1576040517f08c379a0000000000000000000000000000000000000000000000000000000008152600401611ca8906133a9565b60405180910390fd5b600073ffffffffffffffffffffffffffffffffffffffff168273ffffffffffffffffffffffffffffffffffffffff161415611d21576040517f08c379a0000000000000000000000000000000000000000000000000000000008152600401611d189061343b565b60405180910390fd5b611d2c838383612059565b60008060008573ffffffffffffffffffffffffffffffffffffffff1673ffffffffffffffffffffffffffffffffffffffff16815260200190815260200160002054905081811015611db2576040517f08c379a0000000000000000000000000000000000000000000000000000000008152600401611da9906134cd565b60405180910390fd5b8181036000808673ffffffffffffffffffffffffffffffffffffffff1673ffffffffffffffffffffffffffffffffffffffff16815260200190815260200160002081905550816000808573ffffffffffffffffffffffffffffffffffffffff1673ffffffffffffffffffffffffffffffffffffffff1681526020019081526020016000206000828254611e459190612f2f565b925050819055508273ffffffffffffffffffffffffffffffffffffffff168473ffffffffffffffffffffffffffffffffffffffff167fddf252ad1be2c89b69c2b068fc378daa952ba7f163c4a11628f55a4df523b3ef84604051611ea991906122ee565b60405180910390a3611ebc84848461205e565b50505050565b600073ffffffffffffffffffffffffffffffffffffffff168273ffffffffffffffffffffffffffffffffffffffff161415611f32576040517f08c379a0000000000000000000000000000000000000000000000000000000008152600401611f2990613539565b60405180910390fd5b611f3e60008383612059565b8060026000828254611f509190612f2f565b92505081905550806000808473ffffffffffffffffffffffffffffffffffffffff1673ffffffffffffffffffffffffffffffffffffffff1681526020019081526020016000206000828254611fa59190612f2f565b925050819055508173ffffffffffffffffffffffffffffffffffffffff16600073ffffffffffffffffffffffffffffffffffffffff167fddf252ad1be2c89b69c2b068fc378daa952ba7f163c4a11628f55a4df523b3ef8360405161200a91906122ee565b60405180910390a361201e6000838361205e565b5050565b600a80549050600754141561203e576001600781905550612057565b6007600081548092919061205190613559565b91905055505b565b505050565b505050565b82805461206f90612ad2565b90600052602060002090601f01602090048101928261209157600085556120d8565b82601f106120aa57805160ff19168380011785556120d8565b828001600101855582156120d8579182015b828111156120d75782518255916020019190600101906120bc565b5b5090506120e591906120e9565b5090565b5b808211156121025760008160009055506001016120ea565b5090565b600081519050919050565b600082825260208201905092915050565b60005b83811015612140578082015181840152602081019050612125565b8381111561214f576000848401525b50505050565b6000601f19601f8301169050919050565b600061217182612106565b61217b8185612111565b935061218b818560208601612122565b61219481612155565b840191505092915050565b600060208201905081810360008301526121b98184612166565b905092915050565b6000604051905090565b600080fd5b600080fd5b600073ffffffffffffffffffffffffffffffffffffffff82169050919050565b6000612200826121d5565b9050919050565b612210816121f5565b811461221b57600080fd5b50565b60008135905061222d81612207565b92915050565b6000819050919050565b61224681612233565b811461225157600080fd5b50565b6000813590506122638161223d565b92915050565b600080604083850312156122805761227f6121cb565b5b600061228e8582860161221e565b925050602061229f85828601612254565b9150509250929050565b60008115159050919050565b6122be816122a9565b82525050565b60006020820190506122d960008301846122b5565b92915050565b6122e881612233565b82525050565b600060208201905061230360008301846122df565b92915050565b60006020828403121561231f5761231e6121cb565b5b600061232d84828501612254565b91505092915050565b61233f816121f5565b82525050565b600060208201905061235a6000830184612336565b92915050565b600080600060608486031215612379576123786121cb565b5b60006123878682870161221e565b93505060206123988682870161221e565b92505060406123a986828701612254565b9150509250925092565b600080fd5b600080fd5b7f4e487b7100000000000000000000000000000000000000000000000000000000600052604160045260246000fd5b6123f582612155565b810181811067ffffffffffffffff82111715612414576124136123bd565b5b80604052505050565b60006124276121c1565b905061243382826123ec565b919050565b600067ffffffffffffffff821115612453576124526123bd565b5b61245c82612155565b9050602081019050919050565b82818337600083830152505050565b600061248b61248684612438565b61241d565b9050828152602081018484840111156124a7576124a66123b8565b5b6124b2848285612469565b509392505050565b600082601f8301126124cf576124ce6123b3565b5b81356124df848260208601612478565b91505092915050565b6000602082840312156124fe576124fd6121cb565b5b600082013567ffffffffffffffff81111561251c5761251b6121d0565b5b612528848285016124ba565b91505092915050565b600060208284031215612547576125466121cb565b5b60006125558482850161221e565b91505092915050565b600060ff82169050919050565b6125748161255e565b82525050565b600060208201905061258f600083018461256b565b92915050565b60006125a0826121d5565b9050919050565b6125b081612595565b82525050565b6000819050919050565b6125c9816125b6565b82525050565b6000610120820190506125e5600083018c6125a7565b6125f2602083018b6125a7565b8181036040830152612604818a612166565b905081810360608301526126188189612166565b9050612627608083018861256b565b61263460a083018761256b565b61264160c08301866125c0565b61264e60e08301856125c0565b61265c6101008301846122b5565b9a9950505050505050505050565b6126738161255e565b811461267e57600080fd5b50565b6000813590506126908161266a565b92915050565b61269f816125b6565b81146126aa57600080fd5b50565b6000813590506126bc81612696565b92915050565b600080600080608085870312156126dc576126db6121cb565b5b600085013567ffffffffffffffff8111156126fa576126f96121d0565b5b612706878288016124ba565b945050602061271787828801612681565b9350506040612728878288016126ad565b9250506060612739878288016126ad565b91505092959194509250565b7f4e487b7100000000000000000000000000000000000000000000000000000000600052602160045260246000fd5b6003811061278557612784612745565b5b50565b600081905061279682612774565b919050565b60006127a682612788565b9050919050565b6127b68161279b565b82525050565b600281106127cd576127cc612745565b5b50565b60008190506127de826127bc565b919050565b60006127ee826127d0565b9050919050565b6127fe816127e3565b82525050565b60006101208201905061281a600083018c6125a7565b612827602083018b6125a7565b8181036040830152612839818a612166565b9050818103606083015261284d8189612166565b905061285c60808301886127ad565b61286960a08301876127f5565b61287660c08301866125c0565b61288360e08301856125c0565b6128916101008301846122b5565b9a9950505050505050505050565b600081519050919050565b600082825260208201905092915050565b6000819050602082019050919050565b6128d4816121f5565b82525050565b60006128e683836128cb565b60208301905092915050565b6000602082019050919050565b600061290a8261289f565b61291481856128aa565b935061291f836128bb565b8060005b8381101561295057815161293788826128da565b9750612942836128f2565b925050600181019050612923565b5085935050505092915050565b6000602082019050818103600083015261297781846128ff565b905092915050565b60008060408385031215612996576129956121cb565b5b600083013567ffffffffffffffff8111156129b4576129b36121d0565b5b6129c0858286016124ba565b925050602083013567ffffffffffffffff8111156129e1576129e06121d0565b5b6129ed858286016124ba565b9150509250929050565b60008060408385031215612a0e57612a0d6121cb565b5b6000612a1c8582860161221e565b9250506020612a2d8582860161221e565b9150509250929050565b7f796f752061726520616c726561647920612063757261746f7221000000000000600082015250565b6000612a6d601a83612111565b9150612a7882612a37565b602082019050919050565b60006020820190508181036000830152612a9c81612a60565b9050919050565b7f4e487b7100000000000000000000000000000000000000000000000000000000600052602260045260246000fd5b60006002820490506001821680612aea57607f821691505b60208210811415612afe57612afd612aa3565b5b50919050565b7f696e76616c696420706f736974696f6e206f66207a65726f0000000000000000600082015250565b6000612b3a601883612111565b9150612b4582612b04565b602082019050919050565b60006020820190508181036000830152612b6981612b2d565b9050919050565b7f4e487b7100000000000000000000000000000000000000000000000000000000600052603260045260246000fd5b7f45524332303a207472616e7366657220616d6f756e742065786365656473206160008201527f6c6c6f77616e6365000000000000000000000000000000000000000000000000602082015250565b6000612bfb602883612111565b9150612c0682612b9f565b604082019050919050565b60006020820190508181036000830152612c2a81612bee565b9050919050565b600081905092915050565b6000612c4782612106565b612c518185612c31565b9350612c61818560208601612122565b80840191505092915050565b6000612c798284612c3c565b915081905092915050565b7f4f6e6c7920746865207472656527732043757261746f722063616e2063616c6c60008201527f20746869732066756e6374696f6e2e0000000000000000000000000000000000602082015250565b6000612ce0602f83612111565b9150612ceb82612c84565b604082019050919050565b60006020820190508181036000830152612d0f81612cd3565b9050919050565b7f546869732074726565206973206e6f742050656e64696e672e00000000000000600082015250565b6000612d4c601983612111565b9150612d5782612d16565b602082019050919050565b60006020820190508181036000830152612d7b81612d3f565b9050919050565b7f4e487b7100000000000000000000000000000000000000000000000000000000600052601160045260246000fd5b60008160011c9050919050565b6000808291508390505b6001851115612e0857808604811115612de457612de3612d82565b5b6001851615612df35780820291505b8081029050612e0185612db1565b9450612dc8565b94509492505050565b600082612e215760019050612edd565b81612e2f5760009050612edd565b8160018114612e455760028114612e4f57612e7e565b6001915050612edd565b60ff841115612e6157612e60612d82565b5b8360020a915084821115612e7857612e77612d82565b5b50612edd565b5060208310610133831016604e8410600b8410161715612eb35782820a905083811115612eae57612ead612d82565b5b612edd565b612ec08484846001612dbe565b92509050818404811115612ed757612ed6612d82565b5b81810290505b9392505050565b6000612eef82612233565b9150612efa8361255e565b9250612f277fffffffffffffffffffffffffffffffffffffffffffffffffffffffffffffffff8484612e11565b905092915050565b6000612f3a82612233565b9150612f4583612233565b9250827fffffffffffffffffffffffffffffffffffffffffffffffffffffffffffffffff03821115612f7a57612f79612d82565b5b828201905092915050565b7f546865726520617265206e6f7420616e792063757261746f727320746f20726560008201527f7669657720746869732074726565207375626d697373696f6e00000000000000602082015250565b6000612fe1603983612111565b9150612fec82612f85565b604082019050919050565b6000602082019050818103600083015261301081612fd4565b9050919050565b7f7468697320747265652074797065206973206e6f742076616c69640000000000600082015250565b600061304d601b83612111565b915061305882613017565b602082019050919050565b6000602082019050818103600083015261307c81613040565b9050919050565b7f7468697320747265652073686120616c72656164792065786973747300000000600082015250565b60006130b9601c83612111565b91506130c482613083565b602082019050919050565b600060208201905081810360008301526130e8816130ac565b9050919050565b7f746865726520617265206e6f7420656e6f7567682063757261746f727320746f60008201527f2070726f636573732074726565207375626d697373696f6e7300000000000000602082015250565b600061314b603983612111565b9150613156826130ef565b604082019050919050565b6000602082019050818103600083015261317a8161313e565b9050919050565b7f45524332303a2064656372656173656420616c6c6f77616e63652062656c6f7760008201527f207a65726f000000000000000000000000000000000000000000000000000000602082015250565b60006131dd602583612111565b91506131e882613181565b604082019050919050565b6000602082019050818103600083015261320c816131d0565b9050919050565b7f45524332303a20617070726f76652066726f6d20746865207a65726f2061646460008201527f7265737300000000000000000000000000000000000000000000000000000000602082015250565b600061326f602483612111565b915061327a82613213565b604082019050919050565b6000602082019050818103600083015261329e81613262565b9050919050565b7f45524332303a20617070726f766520746f20746865207a65726f20616464726560008201527f7373000000000000000000000000000000000000000000000000000000000000602082015250565b6000613301602283612111565b915061330c826132a5565b604082019050919050565b60006020820190508181036000830152613330816132f4565b9050919050565b7f45524332303a207472616e736665722066726f6d20746865207a65726f20616460008201527f6472657373000000000000000000000000000000000000000000000000000000602082015250565b6000613393602583612111565b915061339e82613337565b604082019050919050565b600060208201905081810360008301526133c281613386565b9050919050565b7f45524332303a207472616e7366657220746f20746865207a65726f206164647260008201527f6573730000000000000000000000000000000000000000000000000000000000602082015250565b6000613425602383612111565b9150613430826133c9565b604082019050919050565b6000602082019050818103600083015261345481613418565b9050919050565b7f45524332303a207472616e7366657220616d6f756e742065786365656473206260008201527f616c616e63650000000000000000000000000000000000000000000000000000602082015250565b60006134b7602683612111565b91506134c28261345b565b604082019050919050565b600060208201905081810360008301526134e6816134aa565b9050919050565b7f45524332303a206d696e7420746f20746865207a65726f206164647265737300600082015250565b6000613523601f83612111565b915061352e826134ed565b602082019050919050565b6000602082019050818103600083015261355281613516565b9050919050565b600061356482612233565b91507fffffffffffffffffffffffffffffffffffffffffffffffffffffffffffffffff82141561359757613596612d82565b5b60018201905091905056fea26469706673582212205aac6aa63816e1fea89c79813c1df2fd286f1778694a76c1fb78b01f87e651f264736f6c634300080a0033",
  "immutableReferences": {},
  "source": "// SPDX-License-Identifier: MIT\npragma solidity ^0.8.0;\n\n/// @title Proof of Trees\n/// @author del.eth\n/// @notice This contract is for demonstration purposes!\n/// @dev All function calls are implemented with explicit access\nimport \"@openzeppelin/contracts/token/ERC20/ERC20.sol\";\n\ncontract ProofOfTrees is ERC20 {\n    address public owner;\n\n    /// @dev track total number of trees\n    uint256 public treeCount;\n    /// @dev track curator to use when creating a tree\n    uint256 public nextCurator;\n\n    /// @dev mapping of unique EXIF hashes (unique identifier) to determined tree data\n    mapping(string => Tree) public trees;\n\n    /// @dev create a unique set of curators and their index. See https://ethereum.stackexchange.com/a/30481 for inspiration\n    mapping(address => uint256) curatorIndex;\n    address[] public curators;\n\n    /**\n    /// @notice \n    Status goes 1) Pending (default upon creation) 2) Rejected -or- Paid (based on curator decision)\n    */\n    enum TreeStatus {\n        Paid,\n        Pending,\n        Rejected\n    }\n\n    /// @notice only track two types of tress for now\n    enum TreeType {\n        Disiduous,\n        Evergreen\n    }\n\n    /** \n    * @notice Tree structure has:\n    * - the hippie who found it\n    * - the curator assigned with reviewing it, the unique \n    * - the unique exifSHA (ideally we'd rely on an some DAO-approved service to hash this information before giving it to the contract)\n    * - the rejected reason, if applicable\n    * - the status for the curation process\n    * - the type of tree\n    * - the latitude\n    * - the longitude \n    * - the valid flag - this is used internally\n     @dev the valid flag is used to address whether the tree has been created by the createTree function\n    */\n    struct Tree {\n        address payable curator;\n        address payable hippie;\n        string exifSHA;\n        string rejectedReason;\n        TreeStatus tStatus;\n        TreeType tType;\n        int256 lat; //latitude\n        int256 long; //longitude\n        bool valid;\n    }\n\n    /*\n     * Events\n     */\n\n    /// @dev log that a tree has been paid (approved by a curator)\n    /// @param exifSHA, the id for tree Paid\n    event LogPaid(string exifSHA);\n\n    /// @dev log that a tree has been rejected by a curator\n    /// @param exifSHA, the id for tree Rejected\n    event LogRejected(string exifSHA);\n\n    /// @dev log that a tree has been put in the Pending curation state (submitted/created by a Hippie)\n    /// @param exifSHA, the id for tree Pending\n    event LogPending(string exifSHA);\n\n    /// @dev log that a curator has been added to the list of curators\n    /// @param curator, the ethereum public account of the curator\n    event LogCuratorAdded(address curator);\n\n    /*\n     * Modifiers\n     */\n    modifier isOwner() {\n        require(msg.sender == owner, \"Only the owner can call this function.\");\n        _;\n    }\n\n    modifier isHippie(string memory _exifSHA) {\n        require(\n            msg.sender == trees[_exifSHA].hippie,\n            \"Only the tree's Hippie can call this function.\"\n        );\n        _;\n    }\n\n    modifier isCurator(string memory _exifSHA) {\n        require(\n            msg.sender == trees[_exifSHA].curator,\n            \"Only the tree's Curator can call this function.\"\n        );\n        _;\n    }\n\n    modifier multipleCurators() {\n        require(\n            curators.length > 1,\n            \"There are not any curators to review this tree submission\"\n        );\n        _;\n    }\n\n    modifier verifyCaller(address _address) {\n        require(msg.sender == _address);\n        _;\n    }\n\n    modifier pending(string memory _exifSHA) {\n        require(\n            trees[_exifSHA].tStatus == TreeStatus.Pending,\n            \"This tree is not Pending.\"\n        );\n        _;\n    }\n    modifier paid(string memory _exifSHA) {\n        require(\n            trees[_exifSHA].tStatus == TreeStatus.Paid,\n            \"This tree is not Paid.\"\n        );\n        _;\n    }\n\n    modifier treeUnique(string memory _exifSHA) {\n        require(!trees[_exifSHA].valid, \"this tree sha already exists\");\n        _;\n    }\n\n    modifier validTreeType(uint8 _tType) {\n        require(\n            uint256(TreeType.Evergreen) >= _tType,\n            \"this tree type is not valid\"\n        );\n        _;\n    }\n\n    constructor() ERC20(\"Proof of Trees\", \"TREE\") {\n        _mint(msg.sender, 10**decimals());\n        owner = msg.sender;\n        treeCount = 0;\n        // We will use position 0 to flag invalid address\n        curators.push(address(address(0x0)));\n        becomeCurator();\n        nextCurator = 1;\n    }\n\n    /*\n     * Functions\n     */\n\n    function decrementTreeCount() private {\n        treeCount--;\n    }\n\n    function incrementTreeCount() private {\n        treeCount++;\n    }\n\n    function incrementCurator() private {\n        //since position 0 is invalid address, just use the length\n        if (nextCurator == curators.length) {\n            nextCurator = 1;\n        } else {\n            nextCurator++;\n        }\n    }\n\n    /**\n        @notice this function creates a tree\n        @dev the contract must have some curators who are not the hippie submitting the image\n        - we prevent SWC-107: Reentrancy by requiring that the curator is not the hippie even after incrementing to round-robin curators\n        - exifSHA is validated as unique and tree type must be valid\n        @param _exifSHA the unique sha of the EXIF data from the image used to identify the tree\n        @param _tType the type of tree (0 = Disiduous, 1 = Evergreen)\n        @param _lat the latitude of the tree\n        @param _long the longitude of the tree\n    */\n    function createTree(\n        string memory _exifSHA,\n        uint8 _tType,\n        int256 _lat,\n        int256 _long\n    ) public multipleCurators validTreeType(_tType) treeUnique(_exifSHA) {\n        //do not let the sender be the curator, pick the next curator\n        if (getCuratorAtPosition(nextCurator) == msg.sender) {\n            incrementCurator();\n        }\n        //some gas optimization avoiding an extra call upon Tree instantiation\n        address _curator = getCuratorAtPosition(nextCurator);\n        //if the curator is still the sender, that means they're the only curator\n        require(\n            _curator != msg.sender,\n            \"there are not enough curators to process tree submissions\"\n        );\n        trees[_exifSHA] = Tree({\n            curator: payable(_curator),\n            hippie: payable(msg.sender),\n            exifSHA: _exifSHA,\n            rejectedReason: \"\",\n            tStatus: TreeStatus.Pending,\n            tType: TreeType(_tType),\n            lat: _lat,\n            long: _long,\n            valid: true\n        });\n        incrementCurator();\n        emit LogPending(_exifSHA);\n    }\n\n    /**\n        @notice this function allows a curator to reject a tree\n        @dev must be a curator assigned to the tree and the tree must be in a pending state\n        @param _exifSHA unique identifier of the tree\n        @param _rejectReason arbitraty reason the tree was rejected by the curator\n    */\n    function reject(string memory _exifSHA, string memory _rejectReason)\n        public\n        isCurator(_exifSHA)\n        pending(_exifSHA)\n    {\n        trees[_exifSHA].tStatus = TreeStatus.Rejected;\n        trees[_exifSHA].rejectedReason = _rejectReason;\n        emit LogRejected(_exifSHA);\n    }\n\n    /**\n        @notice this function allows a curator to pay out TREE tokens for a Hippie's tree\n        @dev must be a curator assigned to the tree and the tree must be in a pending state\n        @param _exifSHA unique identifier of the tree\n    */\n    function pay(string memory _exifSHA)\n        public\n        isCurator(_exifSHA)\n        pending(_exifSHA)\n    {\n        trees[_exifSHA].tStatus = TreeStatus.Paid;\n        _mint(trees[_exifSHA].hippie, 10**decimals());\n\n        emit LogPaid(_exifSHA);\n    }\n\n    /**\n        @notice this function currently allows anyone to become a curator\n        @dev this appends a curator to the list if they are not already a curator\n    */\n    function becomeCurator() public {\n        require(!curatorInArray(msg.sender), \"you are already a curator!\");\n        curatorIndex[msg.sender] = curators.length;\n        curators.push(msg.sender);\n        emit LogCuratorAdded(msg.sender);\n    }\n\n    /**\n        @notice answers true if curator address has been added to list of curators\n        @dev returns true if address is in curatorIndex\n        @param curator address to check if curator\n        @return true if address is a curator\n    */\n    function curatorInArray(address curator) public view returns (bool) {\n        // address address(address(0x0)) is not valid if position is 0 is not in the array\n        if (curator != address(address(0x0)) && curatorIndex[curator] > 0) {\n            return true;\n        }\n        return false;\n    }\n\n    /**\n        @dev gets curator address at a known positionin curators array\n        @param position position in the index\n        @return address of the curator at known position\n    */\n    function getCuratorAtPosition(uint256 position)\n        public\n        view\n        returns (address)\n    {\n        // Position 0 is always an invalid address\n        require(position > 0, \"invalid position of zero\");\n        return curators[position];\n    }\n\n    /**\n        @dev use this for testing or for finding information about a particular tree\n        @param _exifSHA unique identifier of a tree\n    */\n    function fetchTree(string memory _exifSHA)\n        public\n        view\n        returns (\n            address payable curator,\n            address payable hippie,\n            string memory exifSHA,\n            string memory rejectedReason,\n            uint8 tStatus,\n            uint8 tType,\n            int256 lat,\n            int256 long,\n            bool valid\n        )\n    {\n        curator = trees[_exifSHA].curator;\n        hippie = trees[_exifSHA].hippie;\n        exifSHA = trees[_exifSHA].exifSHA;\n        rejectedReason = trees[_exifSHA].rejectedReason;\n        tStatus = uint8(trees[_exifSHA].tStatus);\n        tType = uint8(trees[_exifSHA].tType);\n        lat = trees[_exifSHA].lat;\n        long = trees[_exifSHA].long;\n        valid = trees[_exifSHA].valid;\n        return (\n            curator,\n            hippie,\n            exifSHA,\n            rejectedReason,\n            tStatus,\n            tType,\n            lat,\n            long,\n            valid\n        );\n    }\n\n    /**\n        @notice gives the array of curators\n        @dev use this for testing or for all curators\n        @return address[] array of curators\n    */\n    function fetchCurators() public view returns (address[] memory) {\n        return curators;\n    }\n}\n",
  "sourcePath": "/Users/Delano/blockchain-developer-bootcamp-final-project/contracts/ProofOfTrees.sol",
  "compiler": {
    "name": "solc",
    "version": "0.8.10+commit.fc410830.Emscripten.clang"
  },
  "schemaVersion": "3.4.3",
  "updatedAt": "2021-11-30T22:55:09.537Z",
  "devdoc": {
    "events": {
      "LogCuratorAdded(address)": {
        "details": "log that a curator has been added to the list of curators",
        "params": {
          "curator": ", the ethereum public account of the curator"
        }
      },
      "LogPaid(string)": {
        "details": "log that a tree has been paid (approved by a curator)",
        "params": {
          "exifSHA": ", the id for tree Paid"
        }
      },
      "LogPending(string)": {
        "details": "log that a tree has been put in the Pending curation state (submitted/created by a Hippie)",
        "params": {
          "exifSHA": ", the id for tree Pending"
        }
      },
      "LogRejected(string)": {
        "details": "log that a tree has been rejected by a curator",
        "params": {
          "exifSHA": ", the id for tree Rejected"
        }
      }
    },
    "kind": "dev",
    "methods": {
      "allowance(address,address)": {
        "details": "See {IERC20-allowance}."
      },
      "approve(address,uint256)": {
        "details": "See {IERC20-approve}. Requirements: - `spender` cannot be the zero address."
      },
      "balanceOf(address)": {
        "details": "See {IERC20-balanceOf}."
      },
      "becomeCurator()": {
        "details": "this appends a curator to the list if they are not already a curator"
      },
      "createTree(string,uint8,int256,int256)": {
        "details": "the contract must have some curators who are not the hippie submitting the image - we prevent SWC-107: Reentrancy by requiring that the curator is not the hippie even after incrementing to round-robin curators - exifSHA is validated as unique and tree type must be valid",
        "params": {
          "_exifSHA": "the unique sha of the EXIF data from the image used to identify the tree",
          "_lat": "the latitude of the tree",
          "_long": "the longitude of the tree",
          "_tType": "the type of tree (0 = Disiduous, 1 = Evergreen)"
        }
      },
      "curatorInArray(address)": {
        "details": "returns true if address is in curatorIndex",
        "params": {
          "curator": "address to check if curator"
        },
        "returns": {
          "_0": "true if address is a curator"
        }
      },
      "decimals()": {
        "details": "Returns the number of decimals used to get its user representation. For example, if `decimals` equals `2`, a balance of `505` tokens should be displayed to a user as `5.05` (`505 / 10 ** 2`). Tokens usually opt for a value of 18, imitating the relationship between Ether and Wei. This is the value {ERC20} uses, unless this function is overridden; NOTE: This information is only used for _display_ purposes: it in no way affects any of the arithmetic of the contract, including {IERC20-balanceOf} and {IERC20-transfer}."
      },
      "decreaseAllowance(address,uint256)": {
        "details": "Atomically decreases the allowance granted to `spender` by the caller. This is an alternative to {approve} that can be used as a mitigation for problems described in {IERC20-approve}. Emits an {Approval} event indicating the updated allowance. Requirements: - `spender` cannot be the zero address. - `spender` must have allowance for the caller of at least `subtractedValue`."
      },
      "fetchCurators()": {
        "details": "use this for testing or for all curators",
        "returns": {
          "_0": "address[] array of curators"
        }
      },
      "fetchTree(string)": {
        "details": "use this for testing or for finding information about a particular tree",
        "params": {
          "_exifSHA": "unique identifier of a tree"
        }
      },
      "getCuratorAtPosition(uint256)": {
        "details": "gets curator address at a known positionin curators array",
        "params": {
          "position": "position in the index"
        },
        "returns": {
          "_0": "address of the curator at known position"
        }
      },
      "increaseAllowance(address,uint256)": {
        "details": "Atomically increases the allowance granted to `spender` by the caller. This is an alternative to {approve} that can be used as a mitigation for problems described in {IERC20-approve}. Emits an {Approval} event indicating the updated allowance. Requirements: - `spender` cannot be the zero address."
      },
      "name()": {
        "details": "Returns the name of the token."
      },
      "pay(string)": {
        "details": "must be a curator assigned to the tree and the tree must be in a pending state",
        "params": {
          "_exifSHA": "unique identifier of the tree"
        }
      },
      "reject(string,string)": {
        "details": "must be a curator assigned to the tree and the tree must be in a pending state",
        "params": {
          "_exifSHA": "unique identifier of the tree",
          "_rejectReason": "arbitraty reason the tree was rejected by the curator"
        }
      },
      "symbol()": {
        "details": "Returns the symbol of the token, usually a shorter version of the name."
      },
      "totalSupply()": {
        "details": "See {IERC20-totalSupply}."
      },
      "transfer(address,uint256)": {
        "details": "See {IERC20-transfer}. Requirements: - `recipient` cannot be the zero address. - the caller must have a balance of at least `amount`."
      },
      "transferFrom(address,address,uint256)": {
        "details": "See {IERC20-transferFrom}. Emits an {Approval} event indicating the updated allowance. This is not required by the EIP. See the note at the beginning of {ERC20}. Requirements: - `sender` and `recipient` cannot be the zero address. - `sender` must have a balance of at least `amount`. - the caller must have allowance for ``sender``'s tokens of at least `amount`."
      }
    },
    "stateVariables": {
      "curatorIndex": {
        "details": "create a unique set of curators and their index. See https://ethereum.stackexchange.com/a/30481 for inspiration"
      },
      "nextCurator": {
        "details": "track curator to use when creating a tree"
      },
      "treeCount": {
        "details": "track total number of trees"
      },
      "trees": {
        "details": "mapping of unique EXIF hashes (unique identifier) to determined tree data"
      }
    },
    "version": 1
  },
  "userdoc": {
    "kind": "user",
    "methods": {
      "becomeCurator()": {
        "notice": "this function currently allows anyone to become a curator"
      },
      "createTree(string,uint8,int256,int256)": {
        "notice": "this function creates a tree"
      },
      "curatorInArray(address)": {
        "notice": "answers true if curator address has been added to list of curators"
      },
      "fetchCurators()": {
        "notice": "gives the array of curators"
      },
      "pay(string)": {
        "notice": "this function allows a curator to pay out TREE tokens for a Hippie's tree"
      },
      "reject(string,string)": {
        "notice": "this function allows a curator to reject a tree"
      }
    },
    "version": 1
  }
}