{
  "contractName": "ProofOfTrees",
  "abi": [
    {
      "inputs": [],
      "stateMutability": "nonpayable",
      "type": "constructor"
    },
    {
      "anonymous": false,
      "inputs": [
        {
          "indexed": true,
          "internalType": "address",
          "name": "owner",
          "type": "address"
        },
        {
          "indexed": true,
          "internalType": "address",
          "name": "spender",
          "type": "address"
        },
        {
          "indexed": false,
          "internalType": "uint256",
          "name": "value",
          "type": "uint256"
        }
      ],
      "name": "Approval",
      "type": "event"
    },
    {
      "anonymous": false,
      "inputs": [
        {
          "indexed": false,
          "internalType": "address",
          "name": "curator",
          "type": "address"
        }
      ],
      "name": "LogCuratorAdded",
      "type": "event"
    },
    {
      "anonymous": false,
      "inputs": [
        {
          "indexed": false,
          "internalType": "string",
          "name": "exifSHA",
          "type": "string"
        }
      ],
      "name": "LogPaid",
      "type": "event"
    },
    {
      "anonymous": false,
      "inputs": [
        {
          "indexed": false,
          "internalType": "string",
          "name": "exifSHA",
          "type": "string"
        }
      ],
      "name": "LogPending",
      "type": "event"
    },
    {
      "anonymous": false,
      "inputs": [
        {
          "indexed": false,
          "internalType": "string",
          "name": "exifSHA",
          "type": "string"
        }
      ],
      "name": "LogRejected",
      "type": "event"
    },
    {
      "anonymous": false,
      "inputs": [
        {
          "indexed": true,
          "internalType": "address",
          "name": "from",
          "type": "address"
        },
        {
          "indexed": true,
          "internalType": "address",
          "name": "to",
          "type": "address"
        },
        {
          "indexed": false,
          "internalType": "uint256",
          "name": "value",
          "type": "uint256"
        }
      ],
      "name": "Transfer",
      "type": "event"
    },
    {
      "inputs": [
        {
          "internalType": "address",
          "name": "owner",
          "type": "address"
        },
        {
          "internalType": "address",
          "name": "spender",
          "type": "address"
        }
      ],
      "name": "allowance",
      "outputs": [
        {
          "internalType": "uint256",
          "name": "",
          "type": "uint256"
        }
      ],
      "stateMutability": "view",
      "type": "function",
      "constant": true
    },
    {
      "inputs": [
        {
          "internalType": "address",
          "name": "spender",
          "type": "address"
        },
        {
          "internalType": "uint256",
          "name": "amount",
          "type": "uint256"
        }
      ],
      "name": "approve",
      "outputs": [
        {
          "internalType": "bool",
          "name": "",
          "type": "bool"
        }
      ],
      "stateMutability": "nonpayable",
      "type": "function"
    },
    {
      "inputs": [
        {
          "internalType": "address",
          "name": "account",
          "type": "address"
        }
      ],
      "name": "balanceOf",
      "outputs": [
        {
          "internalType": "uint256",
          "name": "",
          "type": "uint256"
        }
      ],
      "stateMutability": "view",
      "type": "function",
      "constant": true
    },
    {
      "inputs": [],
      "name": "curatorCount",
      "outputs": [
        {
          "internalType": "uint256",
          "name": "",
          "type": "uint256"
        }
      ],
      "stateMutability": "view",
      "type": "function",
      "constant": true
    },
    {
      "inputs": [
        {
          "internalType": "uint256",
          "name": "",
          "type": "uint256"
        }
      ],
      "name": "curators",
      "outputs": [
        {
          "internalType": "address",
          "name": "",
          "type": "address"
        }
      ],
      "stateMutability": "view",
      "type": "function",
      "constant": true
    },
    {
      "inputs": [],
      "name": "decimals",
      "outputs": [
        {
          "internalType": "uint8",
          "name": "",
          "type": "uint8"
        }
      ],
      "stateMutability": "view",
      "type": "function",
      "constant": true
    },
    {
      "inputs": [
        {
          "internalType": "address",
          "name": "spender",
          "type": "address"
        },
        {
          "internalType": "uint256",
          "name": "subtractedValue",
          "type": "uint256"
        }
      ],
      "name": "decreaseAllowance",
      "outputs": [
        {
          "internalType": "bool",
          "name": "",
          "type": "bool"
        }
      ],
      "stateMutability": "nonpayable",
      "type": "function"
    },
    {
      "inputs": [
        {
          "internalType": "address",
          "name": "spender",
          "type": "address"
        },
        {
          "internalType": "uint256",
          "name": "addedValue",
          "type": "uint256"
        }
      ],
      "name": "increaseAllowance",
      "outputs": [
        {
          "internalType": "bool",
          "name": "",
          "type": "bool"
        }
      ],
      "stateMutability": "nonpayable",
      "type": "function"
    },
    {
      "inputs": [],
      "name": "name",
      "outputs": [
        {
          "internalType": "string",
          "name": "",
          "type": "string"
        }
      ],
      "stateMutability": "view",
      "type": "function",
      "constant": true
    },
    {
      "inputs": [],
      "name": "nextCurator",
      "outputs": [
        {
          "internalType": "uint256",
          "name": "",
          "type": "uint256"
        }
      ],
      "stateMutability": "view",
      "type": "function",
      "constant": true
    },
    {
      "inputs": [],
      "name": "owner",
      "outputs": [
        {
          "internalType": "address",
          "name": "",
          "type": "address"
        }
      ],
      "stateMutability": "view",
      "type": "function",
      "constant": true
    },
    {
      "inputs": [],
      "name": "symbol",
      "outputs": [
        {
          "internalType": "string",
          "name": "",
          "type": "string"
        }
      ],
      "stateMutability": "view",
      "type": "function",
      "constant": true
    },
    {
      "inputs": [],
      "name": "totalSupply",
      "outputs": [
        {
          "internalType": "uint256",
          "name": "",
          "type": "uint256"
        }
      ],
      "stateMutability": "view",
      "type": "function",
      "constant": true
    },
    {
      "inputs": [
        {
          "internalType": "address",
          "name": "recipient",
          "type": "address"
        },
        {
          "internalType": "uint256",
          "name": "amount",
          "type": "uint256"
        }
      ],
      "name": "transfer",
      "outputs": [
        {
          "internalType": "bool",
          "name": "",
          "type": "bool"
        }
      ],
      "stateMutability": "nonpayable",
      "type": "function"
    },
    {
      "inputs": [
        {
          "internalType": "address",
          "name": "sender",
          "type": "address"
        },
        {
          "internalType": "address",
          "name": "recipient",
          "type": "address"
        },
        {
          "internalType": "uint256",
          "name": "amount",
          "type": "uint256"
        }
      ],
      "name": "transferFrom",
      "outputs": [
        {
          "internalType": "bool",
          "name": "",
          "type": "bool"
        }
      ],
      "stateMutability": "nonpayable",
      "type": "function"
    },
    {
      "inputs": [
        {
          "internalType": "uint256",
          "name": "",
          "type": "uint256"
        }
      ],
      "name": "treeArray",
      "outputs": [
        {
          "internalType": "address payable",
          "name": "curator",
          "type": "address"
        },
        {
          "internalType": "address payable",
          "name": "hippie",
          "type": "address"
        },
        {
          "internalType": "string",
          "name": "exifSHA",
          "type": "string"
        },
        {
          "internalType": "string",
          "name": "rejectedReason",
          "type": "string"
        },
        {
          "internalType": "enum ProofOfTrees.TreeStatus",
          "name": "tStatus",
          "type": "uint8"
        },
        {
          "internalType": "enum ProofOfTrees.TreeType",
          "name": "tType",
          "type": "uint8"
        },
        {
          "internalType": "int256",
          "name": "lat",
          "type": "int256"
        },
        {
          "internalType": "int256",
          "name": "long",
          "type": "int256"
        },
        {
          "internalType": "bool",
          "name": "valid",
          "type": "bool"
        }
      ],
      "stateMutability": "view",
      "type": "function",
      "constant": true
    },
    {
      "inputs": [],
      "name": "treeCount",
      "outputs": [
        {
          "internalType": "uint256",
          "name": "",
          "type": "uint256"
        }
      ],
      "stateMutability": "view",
      "type": "function",
      "constant": true
    },
    {
      "inputs": [
        {
          "internalType": "string",
          "name": "",
          "type": "string"
        }
      ],
      "name": "trees",
      "outputs": [
        {
          "internalType": "address payable",
          "name": "curator",
          "type": "address"
        },
        {
          "internalType": "address payable",
          "name": "hippie",
          "type": "address"
        },
        {
          "internalType": "string",
          "name": "exifSHA",
          "type": "string"
        },
        {
          "internalType": "string",
          "name": "rejectedReason",
          "type": "string"
        },
        {
          "internalType": "enum ProofOfTrees.TreeStatus",
          "name": "tStatus",
          "type": "uint8"
        },
        {
          "internalType": "enum ProofOfTrees.TreeType",
          "name": "tType",
          "type": "uint8"
        },
        {
          "internalType": "int256",
          "name": "lat",
          "type": "int256"
        },
        {
          "internalType": "int256",
          "name": "long",
          "type": "int256"
        },
        {
          "internalType": "bool",
          "name": "valid",
          "type": "bool"
        }
      ],
      "stateMutability": "view",
      "type": "function",
      "constant": true
    },
    {
      "inputs": [
        {
          "internalType": "string",
          "name": "_exifSHA",
          "type": "string"
        },
        {
          "internalType": "uint8",
          "name": "_tType",
          "type": "uint8"
        },
        {
          "internalType": "int256",
          "name": "_lat",
          "type": "int256"
        },
        {
          "internalType": "int256",
          "name": "_long",
          "type": "int256"
        }
      ],
      "name": "createTree",
      "outputs": [],
      "stateMutability": "nonpayable",
      "type": "function"
    },
    {
      "inputs": [
        {
          "internalType": "string",
          "name": "_exifSHA",
          "type": "string"
        },
        {
          "internalType": "string",
          "name": "_rejectReason",
          "type": "string"
        }
      ],
      "name": "reject",
      "outputs": [],
      "stateMutability": "nonpayable",
      "type": "function"
    },
    {
      "inputs": [
        {
          "internalType": "string",
          "name": "_exifSHA",
          "type": "string"
        }
      ],
      "name": "pay",
      "outputs": [],
      "stateMutability": "nonpayable",
      "type": "function"
    },
    {
      "inputs": [],
      "name": "becomeCurator",
      "outputs": [],
      "stateMutability": "nonpayable",
      "type": "function"
    },
    {
      "inputs": [
        {
          "internalType": "address",
          "name": "curator",
          "type": "address"
        }
      ],
      "name": "curatorInArray",
      "outputs": [
        {
          "internalType": "bool",
          "name": "",
          "type": "bool"
        }
      ],
      "stateMutability": "view",
      "type": "function",
      "constant": true
    },
    {
      "inputs": [
        {
          "internalType": "uint256",
          "name": "position",
          "type": "uint256"
        }
      ],
      "name": "getCuratorAtPosition",
      "outputs": [
        {
          "internalType": "address",
          "name": "",
          "type": "address"
        }
      ],
      "stateMutability": "view",
      "type": "function",
      "constant": true
    },
    {
      "inputs": [
        {
          "internalType": "string",
          "name": "_exifSHA",
          "type": "string"
        }
      ],
      "name": "fetchTree",
      "outputs": [
        {
          "internalType": "address payable",
          "name": "curator",
          "type": "address"
        },
        {
          "internalType": "address payable",
          "name": "hippie",
          "type": "address"
        },
        {
          "internalType": "string",
          "name": "exifSHA",
          "type": "string"
        },
        {
          "internalType": "string",
          "name": "rejectedReason",
          "type": "string"
        },
        {
          "internalType": "uint8",
          "name": "tStatus",
          "type": "uint8"
        },
        {
          "internalType": "uint8",
          "name": "tType",
          "type": "uint8"
        },
        {
          "internalType": "int256",
          "name": "lat",
          "type": "int256"
        },
        {
          "internalType": "int256",
          "name": "long",
          "type": "int256"
        },
        {
          "internalType": "bool",
          "name": "valid",
          "type": "bool"
        }
      ],
      "stateMutability": "view",
      "type": "function",
      "constant": true
    },
    {
      "inputs": [],
      "name": "fetchCurators",
      "outputs": [
        {
          "internalType": "address[]",
          "name": "",
          "type": "address[]"
        }
      ],
      "stateMutability": "view",
      "type": "function",
      "constant": true
    }
  ],
  "bytecode": "0x60806040523480156200001157600080fd5b506040518060400160405280600e81526020017f50726f6f66206f662054726565730000000000000000000000000000000000008152506040518060400160405280600481526020017f54524545000000000000000000000000000000000000000000000000000000008152508160039080519060200190620000969291906200052d565b508060049080519060200190620000af9291906200052d565b505050620000e133620000c7620001b460201b60201c565b600a620000d5919062000777565b620001bd60201b60201c565b33600560006101000a81548173ffffffffffffffffffffffffffffffffffffffff021916908373ffffffffffffffffffffffffffffffffffffffff16021790555060006009819055506000600c81905550600b60009080600181540180825580915050600190039060005260206000200160009091909190916101000a81548173ffffffffffffffffffffffffffffffffffffffff021916908373ffffffffffffffffffffffffffffffffffffffff160217905550620001a66200033660201b60201c565b600160068190555062000a5d565b60006012905090565b600073ffffffffffffffffffffffffffffffffffffffff168273ffffffffffffffffffffffffffffffffffffffff16141562000230576040517f08c379a0000000000000000000000000000000000000000000000000000000008152600401620002279062000829565b60405180910390fd5b62000244600083836200048b60201b60201c565b80600260008282546200025891906200084b565b92505081905550806000808473ffffffffffffffffffffffffffffffffffffffff1673ffffffffffffffffffffffffffffffffffffffff1681526020019081526020016000206000828254620002af91906200084b565b925050819055508173ffffffffffffffffffffffffffffffffffffffff16600073ffffffffffffffffffffffffffffffffffffffff167fddf252ad1be2c89b69c2b068fc378daa952ba7f163c4a11628f55a4df523b3ef83604051620003169190620008b9565b60405180910390a362000332600083836200049060201b60201c565b5050565b62000347336200049560201b60201c565b156200038a576040517f08c379a0000000000000000000000000000000000000000000000000000000008152600401620003819062000926565b60405180910390fd5b600b80549050600a60003373ffffffffffffffffffffffffffffffffffffffff1673ffffffffffffffffffffffffffffffffffffffff16815260200190815260200160002081905550600b339080600181540180825580915050600190039060005260206000200160009091909190916101000a81548173ffffffffffffffffffffffffffffffffffffffff021916908373ffffffffffffffffffffffffffffffffffffffff160217905550600c60008154809291906200044b9062000948565b91905055507f0c376c0a3e1c9b595b191ba5eed1017640dbf72ac537036ffb199ee7e334ea0433604051620004819190620009db565b60405180910390a1565b505050565b505050565b60008073ffffffffffffffffffffffffffffffffffffffff168273ffffffffffffffffffffffffffffffffffffffff16141580156200051357506000600a60008473ffffffffffffffffffffffffffffffffffffffff1673ffffffffffffffffffffffffffffffffffffffff16815260200190815260200160002054115b1562000523576001905062000528565b600090505b919050565b8280546200053b9062000a27565b90600052602060002090601f0160209004810192826200055f5760008555620005ab565b82601f106200057a57805160ff1916838001178555620005ab565b82800160010185558215620005ab579182015b82811115620005aa5782518255916020019190600101906200058d565b5b509050620005ba9190620005be565b5090565b5b80821115620005d9576000816000905550600101620005bf565b5090565b7f4e487b7100000000000000000000000000000000000000000000000000000000600052601160045260246000fd5b60008160011c9050919050565b6000808291508390505b60018511156200066b57808604811115620006435762000642620005dd565b5b6001851615620006535780820291505b808102905062000663856200060c565b945062000623565b94509492505050565b60008262000686576001905062000759565b8162000696576000905062000759565b8160018114620006af5760028114620006ba57620006f0565b600191505062000759565b60ff841115620006cf57620006ce620005dd565b5b8360020a915084821115620006e957620006e8620005dd565b5b5062000759565b5060208310610133831016604e8410600b84101617156200072a5782820a905083811115620007245762000723620005dd565b5b62000759565b62000739848484600162000619565b92509050818404811115620007535762000752620005dd565b5b81810290505b9392505050565b6000819050919050565b600060ff82169050919050565b6000620007848262000760565b915062000791836200076a565b9250620007c07fffffffffffffffffffffffffffffffffffffffffffffffffffffffffffffffff848462000674565b905092915050565b600082825260208201905092915050565b7f45524332303a206d696e7420746f20746865207a65726f206164647265737300600082015250565b600062000811601f83620007c8565b91506200081e82620007d9565b602082019050919050565b60006020820190508181036000830152620008448162000802565b9050919050565b6000620008588262000760565b9150620008658362000760565b9250827fffffffffffffffffffffffffffffffffffffffffffffffffffffffffffffffff038211156200089d576200089c620005dd565b5b828201905092915050565b620008b38162000760565b82525050565b6000602082019050620008d06000830184620008a8565b92915050565b7f796f752061726520616c726561647920612063757261746f7221000000000000600082015250565b60006200090e601a83620007c8565b91506200091b82620008d6565b602082019050919050565b600060208201905081810360008301526200094181620008ff565b9050919050565b6000620009558262000760565b91507fffffffffffffffffffffffffffffffffffffffffffffffffffffffffffffffff8214156200098b576200098a620005dd565b5b600182019050919050565b600073ffffffffffffffffffffffffffffffffffffffff82169050919050565b6000620009c38262000996565b9050919050565b620009d581620009b6565b82525050565b6000602082019050620009f26000830184620009ca565b92915050565b7f4e487b7100000000000000000000000000000000000000000000000000000000600052602260045260246000fd5b6000600282049050600182168062000a4057607f821691505b6020821081141562000a575762000a56620009f8565b5b50919050565b61386f8062000a6d6000396000f3fe608060405234801561001057600080fd5b506004361061018e5760003560e01c80635c4d97a9116100de5780639863275911610097578063d220047811610071578063d2200478146104ed578063dd62ed3e14610509578063dff4343414610539578063fea3b6c3146105695761018e565b80639863275914610455578063a457c2d71461048d578063a9059cbb146104bd5761018e565b80635c4d97a9146103755780635e9fffc31461039357806370a08231146103cb5780637dcdeaad146103fb5780638da5cb5b1461041957806395d89b41146104375761018e565b806323b872dd1161014b578063313ce56711610125578063313ce567146102d357806339509351146102f15780633c32b21314610321578063428075d8146103595761018e565b806323b872dd146102575780632b66d72e146102875780632bb43b22146102a35761018e565b806301e48b081461019357806306fdde031461019d578063095ea7b3146101bb57806318160ddd146101eb5780631b579343146102095780631c5e524e14610239575b600080fd5b61019b610587565b005b6101a56106cd565b6040516101b29190612436565b60405180910390f35b6101d560048036038101906101d09190612500565b61075f565b6040516101e2919061255b565b60405180910390f35b6101f361077d565b6040516102009190612585565b60405180910390f35b610223600480360381019061021e91906125a0565b610787565b60405161023091906125dc565b60405180910390f35b610241610811565b60405161024e9190612585565b60405180910390f35b610271600480360381019061026c91906125f7565b610817565b60405161027e919061255b565b60405180910390f35b6102a1600480360381019061029c919061277f565b61090f565b005b6102bd60048036038101906102b891906127c8565b610b39565b6040516102ca919061255b565b60405180910390f35b6102db610bce565b6040516102e89190612811565b60405180910390f35b61030b60048036038101906103069190612500565b610bd7565b604051610318919061255b565b60405180910390f35b61033b6004803603810190610336919061277f565b610c83565b60405161035099989796959493929190612866565b60405180910390f35b610373600480360381019061036e9190612959565b610f7d565b005b61037d6113e9565b60405161038a9190612585565b60405180910390f35b6103ad60048036038101906103a8919061277f565b6113ef565b6040516103c299989796959493929190612a9b565b60405180910390f35b6103e560048036038101906103e091906127c8565b6115ca565b6040516103f29190612585565b60405180910390f35b610403611612565b6040516104109190612bf4565b60405180910390f35b6104216116a0565b60405161042e91906125dc565b60405180910390f35b61043f6116c6565b60405161044c9190612436565b60405180910390f35b61046f600480360381019061046a91906125a0565b611758565b60405161048499989796959493929190612a9b565b60405180910390f35b6104a760048036038101906104a29190612500565b61192d565b6040516104b4919061255b565b60405180910390f35b6104d760048036038101906104d29190612500565b611a18565b6040516104e4919061255b565b60405180910390f35b61050760048036038101906105029190612c16565b611a36565b005b610523600480360381019061051e9190612c8e565b611c39565b6040516105309190612585565b60405180910390f35b610553600480360381019061054e91906125a0565b611cc0565b60405161056091906125dc565b60405180910390f35b610571611cff565b60405161057e9190612585565b60405180910390f35b61059033610b39565b156105d0576040517f08c379a00000000000000000000000000000000000000000000000000000000081526004016105c790612d1a565b60405180910390fd5b600b80549050600a60003373ffffffffffffffffffffffffffffffffffffffff1673ffffffffffffffffffffffffffffffffffffffff16815260200190815260200160002081905550600b339080600181540180825580915050600190039060005260206000200160009091909190916101000a81548173ffffffffffffffffffffffffffffffffffffffff021916908373ffffffffffffffffffffffffffffffffffffffff160217905550600c600081548092919061068f90612d69565b91905055507f0c376c0a3e1c9b595b191ba5eed1017640dbf72ac537036ffb199ee7e334ea04336040516106c391906125dc565b60405180910390a1565b6060600380546106dc90612de1565b80601f016020809104026020016040519081016040528092919081815260200182805461070890612de1565b80156107555780601f1061072a57610100808354040283529160200191610755565b820191906000526020600020905b81548152906001019060200180831161073857829003601f168201915b5050505050905090565b600061077361076c611d05565b8484611d0d565b6001905092915050565b6000600254905090565b60008082116107cb576040517f08c379a00000000000000000000000000000000000000000000000000000000081526004016107c290612e5f565b60405180910390fd5b600b82815481106107df576107de612e7f565b5b9060005260206000200160009054906101000a900473ffffffffffffffffffffffffffffffffffffffff169050919050565b600c5481565b6000610824848484611ed8565b6000600160008673ffffffffffffffffffffffffffffffffffffffff1673ffffffffffffffffffffffffffffffffffffffff168152602001908152602001600020600061086f611d05565b73ffffffffffffffffffffffffffffffffffffffff1673ffffffffffffffffffffffffffffffffffffffff168152602001908152602001600020549050828110156108ef576040517f08c379a00000000000000000000000000000000000000000000000000000000081526004016108e690612f20565b60405180910390fd5b610903856108fb611d05565b858403611d0d565b60019150509392505050565b806007816040516109209190612f7c565b908152602001604051809103902060000160009054906101000a900473ffffffffffffffffffffffffffffffffffffffff1673ffffffffffffffffffffffffffffffffffffffff163373ffffffffffffffffffffffffffffffffffffffff16146109bf576040517f08c379a00000000000000000000000000000000000000000000000000000000081526004016109b690613005565b60405180910390fd5b81600160028111156109d4576109d36129dc565b5b6007826040516109e49190612f7c565b908152602001604051809103902060040160009054906101000a900460ff166002811115610a1557610a146129dc565b5b14610a55576040517f08c379a0000000000000000000000000000000000000000000000000000000008152600401610a4c90613071565b60405180910390fd5b6000600784604051610a679190612f7c565b908152602001604051809103902060040160006101000a81548160ff02191690836002811115610a9a57610a996129dc565b5b0217905550610afd600784604051610ab29190612f7c565b908152602001604051809103902060010160009054906101000a900473ffffffffffffffffffffffffffffffffffffffff16610aec610bce565b600a610af891906131c4565b612159565b7ff2124d6f42dc40ed151ce91c6fa158c37efc76105a6da22528a5ea0fe1613ea683604051610b2c9190612436565b60405180910390a1505050565b60008073ffffffffffffffffffffffffffffffffffffffff168273ffffffffffffffffffffffffffffffffffffffff1614158015610bb657506000600a60008473ffffffffffffffffffffffffffffffffffffffff1673ffffffffffffffffffffffffffffffffffffffff16815260200190815260200160002054115b15610bc45760019050610bc9565b600090505b919050565b60006012905090565b6000610c79610be4611d05565b848460016000610bf2611d05565b73ffffffffffffffffffffffffffffffffffffffff1673ffffffffffffffffffffffffffffffffffffffff16815260200190815260200160002060008873ffffffffffffffffffffffffffffffffffffffff1673ffffffffffffffffffffffffffffffffffffffff16815260200190815260200160002054610c74919061320f565b611d0d565b6001905092915050565b600080606080600080600080600060078a604051610ca19190612f7c565b908152602001604051809103902060000160009054906101000a900473ffffffffffffffffffffffffffffffffffffffff16985060078a604051610ce59190612f7c565b908152602001604051809103902060010160009054906101000a900473ffffffffffffffffffffffffffffffffffffffff16975060078a604051610d299190612f7c565b90815260200160405180910390206002018054610d4590612de1565b80601f0160208091040260200160405190810160405280929190818152602001828054610d7190612de1565b8015610dbe5780601f10610d9357610100808354040283529160200191610dbe565b820191906000526020600020905b815481529060010190602001808311610da157829003601f168201915b5050505050965060078a604051610dd59190612f7c565b90815260200160405180910390206003018054610df190612de1565b80601f0160208091040260200160405190810160405280929190818152602001828054610e1d90612de1565b8015610e6a5780601f10610e3f57610100808354040283529160200191610e6a565b820191906000526020600020905b815481529060010190602001808311610e4d57829003601f168201915b5050505050955060078a604051610e819190612f7c565b908152602001604051809103902060040160009054906101000a900460ff166002811115610eb257610eb16129dc565b5b945060078a604051610ec49190612f7c565b908152602001604051809103902060040160019054906101000a900460ff166001811115610ef557610ef46129dc565b5b935060078a604051610f079190612f7c565b908152602001604051809103902060050154925060078a604051610f2b9190612f7c565b908152602001604051809103902060060154915060078a604051610f4f9190612f7c565b908152602001604051809103902060070160009054906101000a900460ff1690509193959799909294969850565b6001600b8054905011610fc5576040517f08c379a0000000000000000000000000000000000000000000000000000000008152600401610fbc906132d7565b60405180910390fd5b828060ff16600180811115610fdd57610fdc6129dc565b5b101561101e576040517f08c379a000000000000000000000000000000000000000000000000000000000815260040161101590613343565b60405180910390fd5b8460078160405161102f9190612f7c565b908152602001604051809103902060070160009054906101000a900460ff161561108e576040517f08c379a0000000000000000000000000000000000000000000000000000000008152600401611085906133af565b60405180910390fd5b3373ffffffffffffffffffffffffffffffffffffffff166110b0600654610787565b73ffffffffffffffffffffffffffffffffffffffff1614156110d5576110d46122b9565b5b60006110e2600654610787565b90503373ffffffffffffffffffffffffffffffffffffffff168173ffffffffffffffffffffffffffffffffffffffff161415611153576040517f08c379a000000000000000000000000000000000000000000000000000000000815260040161114a90613441565b60405180910390fd5b6040518061012001604052808273ffffffffffffffffffffffffffffffffffffffff1681526020013373ffffffffffffffffffffffffffffffffffffffff168152602001888152602001604051806020016040528060008152508152602001600160028111156111c6576111c56129dc565b5b81526020018760ff1660018111156111e1576111e06129dc565b5b60018111156111f3576111f26129dc565b5b81526020018681526020018581526020016001151581525060078860405161121b9190612f7c565b908152602001604051809103902060008201518160000160006101000a81548173ffffffffffffffffffffffffffffffffffffffff021916908373ffffffffffffffffffffffffffffffffffffffff16021790555060208201518160010160006101000a81548173ffffffffffffffffffffffffffffffffffffffff021916908373ffffffffffffffffffffffffffffffffffffffff16021790555060408201518160020190805190602001906112d39291906122fa565b5060608201518160030190805190602001906112f09291906122fa565b5060808201518160040160006101000a81548160ff0219169083600281111561131c5761131b6129dc565b5b021790555060a08201518160040160016101000a81548160ff0219169083600181111561134c5761134b6129dc565b5b021790555060c0820151816005015560e082015181600601556101008201518160070160006101000a81548160ff0219169083151502179055509050506113916122b9565b600960008154809291906113a490612d69565b91905055507fe16630a153f61c33e5b1130c549b4183bc47576ac9fe4fc0514ffb34530c8522876040516113d89190612436565b60405180910390a150505050505050565b60065481565b6007818051602081018201805184825260208301602085012081835280955050505050506000915090508060000160009054906101000a900473ffffffffffffffffffffffffffffffffffffffff16908060010160009054906101000a900473ffffffffffffffffffffffffffffffffffffffff169080600201805461147490612de1565b80601f01602080910402602001604051908101604052809291908181526020018280546114a090612de1565b80156114ed5780601f106114c2576101008083540402835291602001916114ed565b820191906000526020600020905b8154815290600101906020018083116114d057829003601f168201915b50505050509080600301805461150290612de1565b80601f016020809104026020016040519081016040528092919081815260200182805461152e90612de1565b801561157b5780601f106115505761010080835404028352916020019161157b565b820191906000526020600020905b81548152906001019060200180831161155e57829003601f168201915b5050505050908060040160009054906101000a900460ff16908060040160019054906101000a900460ff16908060050154908060060154908060070160009054906101000a900460ff16905089565b60008060008373ffffffffffffffffffffffffffffffffffffffff1673ffffffffffffffffffffffffffffffffffffffff168152602001908152602001600020549050919050565b6060600b80548060200260200160405190810160405280929190818152602001828054801561169657602002820191906000526020600020905b8160009054906101000a900473ffffffffffffffffffffffffffffffffffffffff1673ffffffffffffffffffffffffffffffffffffffff168152602001906001019080831161164c575b5050505050905090565b600560009054906101000a900473ffffffffffffffffffffffffffffffffffffffff1681565b6060600480546116d590612de1565b80601f016020809104026020016040519081016040528092919081815260200182805461170190612de1565b801561174e5780601f106117235761010080835404028352916020019161174e565b820191906000526020600020905b81548152906001019060200180831161173157829003601f168201915b5050505050905090565b6008818154811061176857600080fd5b90600052602060002090600802016000915090508060000160009054906101000a900473ffffffffffffffffffffffffffffffffffffffff16908060010160009054906101000a900473ffffffffffffffffffffffffffffffffffffffff16908060020180546117d790612de1565b80601f016020809104026020016040519081016040528092919081815260200182805461180390612de1565b80156118505780601f1061182557610100808354040283529160200191611850565b820191906000526020600020905b81548152906001019060200180831161183357829003601f168201915b50505050509080600301805461186590612de1565b80601f016020809104026020016040519081016040528092919081815260200182805461189190612de1565b80156118de5780601f106118b3576101008083540402835291602001916118de565b820191906000526020600020905b8154815290600101906020018083116118c157829003601f168201915b5050505050908060040160009054906101000a900460ff16908060040160019054906101000a900460ff16908060050154908060060154908060070160009054906101000a900460ff16905089565b6000806001600061193c611d05565b73ffffffffffffffffffffffffffffffffffffffff1673ffffffffffffffffffffffffffffffffffffffff16815260200190815260200160002060008573ffffffffffffffffffffffffffffffffffffffff1673ffffffffffffffffffffffffffffffffffffffff168152602001908152602001600020549050828110156119f9576040517f08c379a00000000000000000000000000000000000000000000000000000000081526004016119f0906134d3565b60405180910390fd5b611a0d611a04611d05565b85858403611d0d565b600191505092915050565b6000611a2c611a25611d05565b8484611ed8565b6001905092915050565b81600781604051611a479190612f7c565b908152602001604051809103902060000160009054906101000a900473ffffffffffffffffffffffffffffffffffffffff1673ffffffffffffffffffffffffffffffffffffffff163373ffffffffffffffffffffffffffffffffffffffff1614611ae6576040517f08c379a0000000000000000000000000000000000000000000000000000000008152600401611add90613005565b60405180910390fd5b8260016002811115611afb57611afa6129dc565b5b600782604051611b0b9190612f7c565b908152602001604051809103902060040160009054906101000a900460ff166002811115611b3c57611b3b6129dc565b5b14611b7c576040517f08c379a0000000000000000000000000000000000000000000000000000000008152600401611b7390613071565b60405180910390fd5b6002600785604051611b8e9190612f7c565b908152602001604051809103902060040160006101000a81548160ff02191690836002811115611bc157611bc06129dc565b5b021790555082600785604051611bd79190612f7c565b90815260200160405180910390206003019080519060200190611bfb9291906122fa565b507fce2218b12ed5963aef2044d11653ede961f3cb3aec1f74518a09f14184d3caf684604051611c2b9190612436565b60405180910390a150505050565b6000600160008473ffffffffffffffffffffffffffffffffffffffff1673ffffffffffffffffffffffffffffffffffffffff16815260200190815260200160002060008373ffffffffffffffffffffffffffffffffffffffff1673ffffffffffffffffffffffffffffffffffffffff16815260200190815260200160002054905092915050565b600b8181548110611cd057600080fd5b906000526020600020016000915054906101000a900473ffffffffffffffffffffffffffffffffffffffff1681565b60095481565b600033905090565b600073ffffffffffffffffffffffffffffffffffffffff168373ffffffffffffffffffffffffffffffffffffffff161415611d7d576040517f08c379a0000000000000000000000000000000000000000000000000000000008152600401611d7490613565565b60405180910390fd5b600073ffffffffffffffffffffffffffffffffffffffff168273ffffffffffffffffffffffffffffffffffffffff161415611ded576040517f08c379a0000000000000000000000000000000000000000000000000000000008152600401611de4906135f7565b60405180910390fd5b80600160008573ffffffffffffffffffffffffffffffffffffffff1673ffffffffffffffffffffffffffffffffffffffff16815260200190815260200160002060008473ffffffffffffffffffffffffffffffffffffffff1673ffffffffffffffffffffffffffffffffffffffff168152602001908152602001600020819055508173ffffffffffffffffffffffffffffffffffffffff168373ffffffffffffffffffffffffffffffffffffffff167f8c5be1e5ebec7d5bd14f71427d1e84f3dd0314c0f7b2291e5b200ac8c7c3b92583604051611ecb9190612585565b60405180910390a3505050565b600073ffffffffffffffffffffffffffffffffffffffff168373ffffffffffffffffffffffffffffffffffffffff161415611f48576040517f08c379a0000000000000000000000000000000000000000000000000000000008152600401611f3f90613689565b60405180910390fd5b600073ffffffffffffffffffffffffffffffffffffffff168273ffffffffffffffffffffffffffffffffffffffff161415611fb8576040517f08c379a0000000000000000000000000000000000000000000000000000000008152600401611faf9061371b565b60405180910390fd5b611fc38383836122f0565b60008060008573ffffffffffffffffffffffffffffffffffffffff1673ffffffffffffffffffffffffffffffffffffffff16815260200190815260200160002054905081811015612049576040517f08c379a0000000000000000000000000000000000000000000000000000000008152600401612040906137ad565b60405180910390fd5b8181036000808673ffffffffffffffffffffffffffffffffffffffff1673ffffffffffffffffffffffffffffffffffffffff16815260200190815260200160002081905550816000808573ffffffffffffffffffffffffffffffffffffffff1673ffffffffffffffffffffffffffffffffffffffff16815260200190815260200160002060008282546120dc919061320f565b925050819055508273ffffffffffffffffffffffffffffffffffffffff168473ffffffffffffffffffffffffffffffffffffffff167fddf252ad1be2c89b69c2b068fc378daa952ba7f163c4a11628f55a4df523b3ef846040516121409190612585565b60405180910390a36121538484846122f5565b50505050565b600073ffffffffffffffffffffffffffffffffffffffff168273ffffffffffffffffffffffffffffffffffffffff1614156121c9576040517f08c379a00000000000000000000000000000000000000000000000000000000081526004016121c090613819565b60405180910390fd5b6121d5600083836122f0565b80600260008282546121e7919061320f565b92505081905550806000808473ffffffffffffffffffffffffffffffffffffffff1673ffffffffffffffffffffffffffffffffffffffff168152602001908152602001600020600082825461223c919061320f565b925050819055508173ffffffffffffffffffffffffffffffffffffffff16600073ffffffffffffffffffffffffffffffffffffffff167fddf252ad1be2c89b69c2b068fc378daa952ba7f163c4a11628f55a4df523b3ef836040516122a19190612585565b60405180910390a36122b5600083836122f5565b5050565b600b8054905060065414156122d55760016006819055506122ee565b600660008154809291906122e890612d69565b91905055505b565b505050565b505050565b82805461230690612de1565b90600052602060002090601f016020900481019282612328576000855561236f565b82601f1061234157805160ff191683800117855561236f565b8280016001018555821561236f579182015b8281111561236e578251825591602001919060010190612353565b5b50905061237c9190612380565b5090565b5b80821115612399576000816000905550600101612381565b5090565b600081519050919050565b600082825260208201905092915050565b60005b838110156123d75780820151818401526020810190506123bc565b838111156123e6576000848401525b50505050565b6000601f19601f8301169050919050565b60006124088261239d565b61241281856123a8565b93506124228185602086016123b9565b61242b816123ec565b840191505092915050565b6000602082019050818103600083015261245081846123fd565b905092915050565b6000604051905090565b600080fd5b600080fd5b600073ffffffffffffffffffffffffffffffffffffffff82169050919050565b60006124978261246c565b9050919050565b6124a78161248c565b81146124b257600080fd5b50565b6000813590506124c48161249e565b92915050565b6000819050919050565b6124dd816124ca565b81146124e857600080fd5b50565b6000813590506124fa816124d4565b92915050565b6000806040838503121561251757612516612462565b5b6000612525858286016124b5565b9250506020612536858286016124eb565b9150509250929050565b60008115159050919050565b61255581612540565b82525050565b6000602082019050612570600083018461254c565b92915050565b61257f816124ca565b82525050565b600060208201905061259a6000830184612576565b92915050565b6000602082840312156125b6576125b5612462565b5b60006125c4848285016124eb565b91505092915050565b6125d68161248c565b82525050565b60006020820190506125f160008301846125cd565b92915050565b6000806000606084860312156126105761260f612462565b5b600061261e868287016124b5565b935050602061262f868287016124b5565b9250506040612640868287016124eb565b9150509250925092565b600080fd5b600080fd5b7f4e487b7100000000000000000000000000000000000000000000000000000000600052604160045260246000fd5b61268c826123ec565b810181811067ffffffffffffffff821117156126ab576126aa612654565b5b80604052505050565b60006126be612458565b90506126ca8282612683565b919050565b600067ffffffffffffffff8211156126ea576126e9612654565b5b6126f3826123ec565b9050602081019050919050565b82818337600083830152505050565b600061272261271d846126cf565b6126b4565b90508281526020810184848401111561273e5761273d61264f565b5b612749848285612700565b509392505050565b600082601f8301126127665761276561264a565b5b813561277684826020860161270f565b91505092915050565b60006020828403121561279557612794612462565b5b600082013567ffffffffffffffff8111156127b3576127b2612467565b5b6127bf84828501612751565b91505092915050565b6000602082840312156127de576127dd612462565b5b60006127ec848285016124b5565b91505092915050565b600060ff82169050919050565b61280b816127f5565b82525050565b60006020820190506128266000830184612802565b92915050565b60006128378261246c565b9050919050565b6128478161282c565b82525050565b6000819050919050565b6128608161284d565b82525050565b60006101208201905061287c600083018c61283e565b612889602083018b61283e565b818103604083015261289b818a6123fd565b905081810360608301526128af81896123fd565b90506128be6080830188612802565b6128cb60a0830187612802565b6128d860c0830186612857565b6128e560e0830185612857565b6128f361010083018461254c565b9a9950505050505050505050565b61290a816127f5565b811461291557600080fd5b50565b60008135905061292781612901565b92915050565b6129368161284d565b811461294157600080fd5b50565b6000813590506129538161292d565b92915050565b6000806000806080858703121561297357612972612462565b5b600085013567ffffffffffffffff81111561299157612990612467565b5b61299d87828801612751565b94505060206129ae87828801612918565b93505060406129bf87828801612944565b92505060606129d087828801612944565b91505092959194509250565b7f4e487b7100000000000000000000000000000000000000000000000000000000600052602160045260246000fd5b60038110612a1c57612a1b6129dc565b5b50565b6000819050612a2d82612a0b565b919050565b6000612a3d82612a1f565b9050919050565b612a4d81612a32565b82525050565b60028110612a6457612a636129dc565b5b50565b6000819050612a7582612a53565b919050565b6000612a8582612a67565b9050919050565b612a9581612a7a565b82525050565b600061012082019050612ab1600083018c61283e565b612abe602083018b61283e565b8181036040830152612ad0818a6123fd565b90508181036060830152612ae481896123fd565b9050612af36080830188612a44565b612b0060a0830187612a8c565b612b0d60c0830186612857565b612b1a60e0830185612857565b612b2861010083018461254c565b9a9950505050505050505050565b600081519050919050565b600082825260208201905092915050565b6000819050602082019050919050565b612b6b8161248c565b82525050565b6000612b7d8383612b62565b60208301905092915050565b6000602082019050919050565b6000612ba182612b36565b612bab8185612b41565b9350612bb683612b52565b8060005b83811015612be7578151612bce8882612b71565b9750612bd983612b89565b925050600181019050612bba565b5085935050505092915050565b60006020820190508181036000830152612c0e8184612b96565b905092915050565b60008060408385031215612c2d57612c2c612462565b5b600083013567ffffffffffffffff811115612c4b57612c4a612467565b5b612c5785828601612751565b925050602083013567ffffffffffffffff811115612c7857612c77612467565b5b612c8485828601612751565b9150509250929050565b60008060408385031215612ca557612ca4612462565b5b6000612cb3858286016124b5565b9250506020612cc4858286016124b5565b9150509250929050565b7f796f752061726520616c726561647920612063757261746f7221000000000000600082015250565b6000612d04601a836123a8565b9150612d0f82612cce565b602082019050919050565b60006020820190508181036000830152612d3381612cf7565b9050919050565b7f4e487b7100000000000000000000000000000000000000000000000000000000600052601160045260246000fd5b6000612d74826124ca565b91507fffffffffffffffffffffffffffffffffffffffffffffffffffffffffffffffff821415612da757612da6612d3a565b5b600182019050919050565b7f4e487b7100000000000000000000000000000000000000000000000000000000600052602260045260246000fd5b60006002820490506001821680612df957607f821691505b60208210811415612e0d57612e0c612db2565b5b50919050565b7f696e76616c696420706f736974696f6e206f66207a65726f0000000000000000600082015250565b6000612e496018836123a8565b9150612e5482612e13565b602082019050919050565b60006020820190508181036000830152612e7881612e3c565b9050919050565b7f4e487b7100000000000000000000000000000000000000000000000000000000600052603260045260246000fd5b7f45524332303a207472616e7366657220616d6f756e742065786365656473206160008201527f6c6c6f77616e6365000000000000000000000000000000000000000000000000602082015250565b6000612f0a6028836123a8565b9150612f1582612eae565b604082019050919050565b60006020820190508181036000830152612f3981612efd565b9050919050565b600081905092915050565b6000612f568261239d565b612f608185612f40565b9350612f708185602086016123b9565b80840191505092915050565b6000612f888284612f4b565b915081905092915050565b7f4f6e6c7920746865207472656527732043757261746f722063616e2063616c6c60008201527f20746869732066756e6374696f6e2e0000000000000000000000000000000000602082015250565b6000612fef602f836123a8565b9150612ffa82612f93565b604082019050919050565b6000602082019050818103600083015261301e81612fe2565b9050919050565b7f546869732074726565206973206e6f742050656e64696e672e00000000000000600082015250565b600061305b6019836123a8565b915061306682613025565b602082019050919050565b6000602082019050818103600083015261308a8161304e565b9050919050565b60008160011c9050919050565b6000808291508390505b60018511156130e8578086048111156130c4576130c3612d3a565b5b60018516156130d35780820291505b80810290506130e185613091565b94506130a8565b94509492505050565b60008261310157600190506131bd565b8161310f57600090506131bd565b8160018114613125576002811461312f5761315e565b60019150506131bd565b60ff84111561314157613140612d3a565b5b8360020a91508482111561315857613157612d3a565b5b506131bd565b5060208310610133831016604e8410600b84101617156131935782820a90508381111561318e5761318d612d3a565b5b6131bd565b6131a0848484600161309e565b925090508184048111156131b7576131b6612d3a565b5b81810290505b9392505050565b60006131cf826124ca565b91506131da836127f5565b92506132077fffffffffffffffffffffffffffffffffffffffffffffffffffffffffffffffff84846130f1565b905092915050565b600061321a826124ca565b9150613225836124ca565b9250827fffffffffffffffffffffffffffffffffffffffffffffffffffffffffffffffff0382111561325a57613259612d3a565b5b828201905092915050565b7f546865726520617265206e6f7420616e792063757261746f727320746f20726560008201527f7669657720746869732074726565207375626d697373696f6e00000000000000602082015250565b60006132c16039836123a8565b91506132cc82613265565b604082019050919050565b600060208201905081810360008301526132f0816132b4565b9050919050565b7f7468697320747265652074797065206973206e6f742076616c69640000000000600082015250565b600061332d601b836123a8565b9150613338826132f7565b602082019050919050565b6000602082019050818103600083015261335c81613320565b9050919050565b7f7468697320747265652073686120616c72656164792065786973747300000000600082015250565b6000613399601c836123a8565b91506133a482613363565b602082019050919050565b600060208201905081810360008301526133c88161338c565b9050919050565b7f746865726520617265206e6f7420656e6f7567682063757261746f727320746f60008201527f2070726f636573732074726565207375626d697373696f6e7300000000000000602082015250565b600061342b6039836123a8565b9150613436826133cf565b604082019050919050565b6000602082019050818103600083015261345a8161341e565b9050919050565b7f45524332303a2064656372656173656420616c6c6f77616e63652062656c6f7760008201527f207a65726f000000000000000000000000000000000000000000000000000000602082015250565b60006134bd6025836123a8565b91506134c882613461565b604082019050919050565b600060208201905081810360008301526134ec816134b0565b9050919050565b7f45524332303a20617070726f76652066726f6d20746865207a65726f2061646460008201527f7265737300000000000000000000000000000000000000000000000000000000602082015250565b600061354f6024836123a8565b915061355a826134f3565b604082019050919050565b6000602082019050818103600083015261357e81613542565b9050919050565b7f45524332303a20617070726f766520746f20746865207a65726f20616464726560008201527f7373000000000000000000000000000000000000000000000000000000000000602082015250565b60006135e16022836123a8565b91506135ec82613585565b604082019050919050565b60006020820190508181036000830152613610816135d4565b9050919050565b7f45524332303a207472616e736665722066726f6d20746865207a65726f20616460008201527f6472657373000000000000000000000000000000000000000000000000000000602082015250565b60006136736025836123a8565b915061367e82613617565b604082019050919050565b600060208201905081810360008301526136a281613666565b9050919050565b7f45524332303a207472616e7366657220746f20746865207a65726f206164647260008201527f6573730000000000000000000000000000000000000000000000000000000000602082015250565b60006137056023836123a8565b9150613710826136a9565b604082019050919050565b60006020820190508181036000830152613734816136f8565b9050919050565b7f45524332303a207472616e7366657220616d6f756e742065786365656473206260008201527f616c616e63650000000000000000000000000000000000000000000000000000602082015250565b60006137976026836123a8565b91506137a28261373b565b604082019050919050565b600060208201905081810360008301526137c68161378a565b9050919050565b7f45524332303a206d696e7420746f20746865207a65726f206164647265737300600082015250565b6000613803601f836123a8565b915061380e826137cd565b602082019050919050565b60006020820190508181036000830152613832816137f6565b905091905056fea26469706673582212206bd891760cf9436b6e6e862b5718831f2f1d8da70e92cae58e95b288b874e6a564736f6c634300080a0033",
  "immutableReferences": {},
  "source": "// SPDX-License-Identifier: MIT\npragma solidity ^0.8.0;\n\nimport \"@openzeppelin/contracts/token/ERC20/ERC20.sol\";\n\n/// @title Proof of Trees\n/// @author del.eth\n/// @notice This contract is for demonstration purposes!\n/// @dev All function calls are implemented with explicit access\ncontract ProofOfTrees is ERC20 {\n    address public owner;\n\n    /// @dev track curator to use when creating a tree\n    uint256 public nextCurator;\n\n    /// @dev mapping of unique EXIF hashes (unique identifier) to determined tree data\n    mapping(string => Tree) public trees;\n    /// @dev track trees in a simple array for ui purposes\n    Tree[] public treeArray;\n    /// @dev track total number of trees\n    uint256 public treeCount;\n\n    /// @dev create a unique set of curators and their index. See https://ethereum.stackexchange.com/a/30481 for inspiration\n    mapping(address => uint256) curatorIndex;\n    /// @dev track curators in a simple array to easily reference from their index and for ui purposes\n    address[] public curators;\n    /// @dev track total number of curators\n    uint256 public curatorCount;\n\n    /**\n    /// @notice \n    Status goes 1) Pending (default upon creation) 2) Rejected -or- Paid (based on curator decision)\n    */\n    enum TreeStatus {\n        Paid,\n        Pending,\n        Rejected\n    }\n\n    /// @notice only track two types of tress for now\n    enum TreeType {\n        Disiduous,\n        Evergreen\n    }\n\n    /** \n    * @notice Tree structure has:\n    * - the hippie who found it\n    * - the curator assigned with reviewing it, the unique \n    * - the unique exifSHA (ideally we'd rely on an some DAO-approved service to hash this information before giving it to the contract)\n    * - the rejected reason, if applicable\n    * - the status for the curation process\n    * - the type of tree\n    * - the latitude\n    * - the longitude \n    * - the valid flag - this is used internally\n     @dev the valid flag is used to address whether the tree has been created by the createTree function\n    */\n    struct Tree {\n        address payable curator;\n        address payable hippie;\n        string exifSHA;\n        string rejectedReason;\n        TreeStatus tStatus;\n        TreeType tType;\n        int256 lat; //latitude\n        int256 long; //longitude\n        bool valid;\n    }\n\n    /*\n     * Events\n     */\n\n    /// @dev log that a tree has been paid (approved by a curator)\n    /// @param exifSHA, the id for tree Paid\n    event LogPaid(string exifSHA);\n\n    /// @dev log that a tree has been rejected by a curator\n    /// @param exifSHA, the id for tree Rejected\n    event LogRejected(string exifSHA);\n\n    /// @dev log that a tree has been put in the Pending curation state (submitted/created by a Hippie)\n    /// @param exifSHA, the id for tree Pending\n    event LogPending(string exifSHA);\n\n    /// @dev log that a curator has been added to the list of curators\n    /// @param curator, the ethereum public account of the curator\n    event LogCuratorAdded(address curator);\n\n    /*\n     * Modifiers\n     */\n    modifier isOwner() {\n        require(msg.sender == owner, \"Only the owner can call this function.\");\n        _;\n    }\n\n    modifier isHippie(string memory _exifSHA) {\n        require(\n            msg.sender == trees[_exifSHA].hippie,\n            \"Only the tree's Hippie can call this function.\"\n        );\n        _;\n    }\n\n    modifier isCurator(string memory _exifSHA) {\n        require(\n            msg.sender == trees[_exifSHA].curator,\n            \"Only the tree's Curator can call this function.\"\n        );\n        _;\n    }\n\n    modifier multipleCurators() {\n        require(\n            curators.length > 1,\n            \"There are not any curators to review this tree submission\"\n        );\n        _;\n    }\n\n    modifier verifyCaller(address _address) {\n        require(msg.sender == _address);\n        _;\n    }\n\n    modifier pending(string memory _exifSHA) {\n        require(\n            trees[_exifSHA].tStatus == TreeStatus.Pending,\n            \"This tree is not Pending.\"\n        );\n        _;\n    }\n    modifier paid(string memory _exifSHA) {\n        require(\n            trees[_exifSHA].tStatus == TreeStatus.Paid,\n            \"This tree is not Paid.\"\n        );\n        _;\n    }\n\n    modifier treeUnique(string memory _exifSHA) {\n        require(!trees[_exifSHA].valid, \"this tree sha already exists\");\n        _;\n    }\n\n    modifier validTreeType(uint8 _tType) {\n        require(\n            uint256(TreeType.Evergreen) >= _tType,\n            \"this tree type is not valid\"\n        );\n        _;\n    }\n\n    /**\n        @notice this function creates a tree\n        @dev Proof Of Trees (TREE) contract\n        - instantiates \n    */\n    constructor() ERC20(\"Proof of Trees\", \"TREE\") {\n        _mint(msg.sender, 10**decimals());\n        owner = msg.sender;\n        treeCount = 0;\n        curatorCount = 0;\n        // We will use position 0 to flag invalid address\n        curators.push(address(address(0x0)));\n        becomeCurator();\n        nextCurator = 1;\n    }\n\n    /*\n     * Functions\n     */\n\n    function incrementTreeCount() private {\n        treeCount++;\n    }\n\n    function incrementNextCurator() private {\n        //since position 0 is invalid address, just use the length\n        if (nextCurator == curators.length) {\n            nextCurator = 1;\n        } else {\n            nextCurator++;\n        }\n    }\n\n    /**\n        @notice this function creates a tree\n        @dev the contract must have some curators who are not the hippie submitting the image\n        - we prevent SWC-107: Reentrancy by requiring that the curator is not the hippie even after incrementing to round-robin curators\n        - exifSHA is validated as unique and tree type must be valid\n        @param _exifSHA the unique sha of the EXIF data from the image used to identify the tree\n        @param _tType the type of tree (0 = Disiduous, 1 = Evergreen)\n        @param _lat the latitude of the tree\n        @param _long the longitude of the tree\n    */\n    function createTree(\n        string memory _exifSHA,\n        uint8 _tType,\n        int256 _lat,\n        int256 _long\n    ) public multipleCurators validTreeType(_tType) treeUnique(_exifSHA) {\n        //do not let the sender be the curator, pick the next curator\n        if (getCuratorAtPosition(nextCurator) == msg.sender) {\n            incrementNextCurator();\n        }\n        //some gas optimization avoiding an extra call upon Tree instantiation\n        address _curator = getCuratorAtPosition(nextCurator);\n        //if the curator is still the sender, that means they're the only curator\n        require(\n            _curator != msg.sender,\n            \"there are not enough curators to process tree submissions\"\n        );\n        trees[_exifSHA] = Tree({\n            curator: payable(_curator),\n            hippie: payable(msg.sender),\n            exifSHA: _exifSHA,\n            rejectedReason: \"\",\n            tStatus: TreeStatus.Pending,\n            tType: TreeType(_tType),\n            lat: _lat,\n            long: _long,\n            valid: true\n        });\n        incrementNextCurator();\n        treeCount++;\n        emit LogPending(_exifSHA);\n    }\n\n    /**\n        @notice this function allows a curator to reject a tree\n        @dev must be a curator assigned to the tree and the tree must be in a pending state\n        @param _exifSHA unique identifier of the tree\n        @param _rejectReason arbitraty reason the tree was rejected by the curator\n    */\n    function reject(string memory _exifSHA, string memory _rejectReason)\n        public\n        isCurator(_exifSHA)\n        pending(_exifSHA)\n    {\n        trees[_exifSHA].tStatus = TreeStatus.Rejected;\n        trees[_exifSHA].rejectedReason = _rejectReason;\n        emit LogRejected(_exifSHA);\n    }\n\n    /**\n        @notice this function allows a curator to pay out TREE tokens for a Hippie's tree\n        @dev must be a curator assigned to the tree and the tree must be in a pending state\n        @param _exifSHA unique identifier of the tree\n    */\n    function pay(string memory _exifSHA)\n        public\n        isCurator(_exifSHA)\n        pending(_exifSHA)\n    {\n        trees[_exifSHA].tStatus = TreeStatus.Paid;\n        _mint(trees[_exifSHA].hippie, 10**decimals());\n\n        emit LogPaid(_exifSHA);\n    }\n\n    /**\n        @notice this function currently allows anyone to become a curator\n        @dev this appends a curator to the list if they are not already a curator\n    */\n    function becomeCurator() public {\n        require(!curatorInArray(msg.sender), \"you are already a curator!\");\n        curatorIndex[msg.sender] = curators.length;\n        curators.push(msg.sender);\n        curatorCount++;\n        emit LogCuratorAdded(msg.sender);\n    }\n\n    /**\n        @notice answers true if curator address has been added to list of curators\n        @dev returns true if address is in curatorIndex\n        @param curator address to check if curator\n        @return true if address is a curator\n    */\n    function curatorInArray(address curator) public view returns (bool) {\n        // address address(address(0x0)) is not valid if position is 0 is not in the array\n        if (curator != address(address(0x0)) && curatorIndex[curator] > 0) {\n            return true;\n        }\n        return false;\n    }\n\n    /**\n        @dev gets curator address at a known positionin curators array\n        @param position position in the index\n        @return address of the curator at known position\n    */\n    function getCuratorAtPosition(uint256 position)\n        public\n        view\n        returns (address)\n    {\n        // Position 0 is always an invalid address\n        require(position > 0, \"invalid position of zero\");\n        return curators[position];\n    }\n\n    /**\n        @dev use this for testing or for finding information about a particular tree\n        @param _exifSHA unique identifier of a tree\n    */\n    function fetchTree(string memory _exifSHA)\n        public\n        view\n        returns (\n            address payable curator,\n            address payable hippie,\n            string memory exifSHA,\n            string memory rejectedReason,\n            uint8 tStatus,\n            uint8 tType,\n            int256 lat,\n            int256 long,\n            bool valid\n        )\n    {\n        curator = trees[_exifSHA].curator;\n        hippie = trees[_exifSHA].hippie;\n        exifSHA = trees[_exifSHA].exifSHA;\n        rejectedReason = trees[_exifSHA].rejectedReason;\n        tStatus = uint8(trees[_exifSHA].tStatus);\n        tType = uint8(trees[_exifSHA].tType);\n        lat = trees[_exifSHA].lat;\n        long = trees[_exifSHA].long;\n        valid = trees[_exifSHA].valid;\n        return (\n            curator,\n            hippie,\n            exifSHA,\n            rejectedReason,\n            tStatus,\n            tType,\n            lat,\n            long,\n            valid\n        );\n    }\n\n    /**\n        @notice gives the array of curators\n        @dev use this for testing or for all curators\n        @return address[] array of curators\n    */\n    function fetchCurators() public view returns (address[] memory) {\n        return curators;\n    }\n}\n",
  "sourcePath": "/Users/Delano/blockchain-developer-bootcamp-final-project/contracts/ProofOfTrees.sol",
  "compiler": {
    "name": "solc",
    "version": "0.8.10+commit.fc410830.Emscripten.clang"
  },
  "schemaVersion": "3.4.3",
  "updatedAt": "2021-12-01T02:10:21.441Z",
  "networkType": "ethereum",
  "devdoc": {
    "author": "del.eth",
    "details": "All function calls are implemented with explicit access",
    "events": {
      "LogCuratorAdded(address)": {
        "details": "log that a curator has been added to the list of curators",
        "params": {
          "curator": ", the ethereum public account of the curator"
        }
      },
      "LogPaid(string)": {
        "details": "log that a tree has been paid (approved by a curator)",
        "params": {
          "exifSHA": ", the id for tree Paid"
        }
      },
      "LogPending(string)": {
        "details": "log that a tree has been put in the Pending curation state (submitted/created by a Hippie)",
        "params": {
          "exifSHA": ", the id for tree Pending"
        }
      },
      "LogRejected(string)": {
        "details": "log that a tree has been rejected by a curator",
        "params": {
          "exifSHA": ", the id for tree Rejected"
        }
      }
    },
    "kind": "dev",
    "methods": {
      "allowance(address,address)": {
        "details": "See {IERC20-allowance}."
      },
      "approve(address,uint256)": {
        "details": "See {IERC20-approve}. Requirements: - `spender` cannot be the zero address."
      },
      "balanceOf(address)": {
        "details": "See {IERC20-balanceOf}."
      },
      "becomeCurator()": {
        "details": "this appends a curator to the list if they are not already a curator"
      },
      "constructor": {
        "details": "Proof Of Trees (TREE) contract - instantiates "
      },
      "createTree(string,uint8,int256,int256)": {
        "details": "the contract must have some curators who are not the hippie submitting the image - we prevent SWC-107: Reentrancy by requiring that the curator is not the hippie even after incrementing to round-robin curators - exifSHA is validated as unique and tree type must be valid",
        "params": {
          "_exifSHA": "the unique sha of the EXIF data from the image used to identify the tree",
          "_lat": "the latitude of the tree",
          "_long": "the longitude of the tree",
          "_tType": "the type of tree (0 = Disiduous, 1 = Evergreen)"
        }
      },
      "curatorInArray(address)": {
        "details": "returns true if address is in curatorIndex",
        "params": {
          "curator": "address to check if curator"
        },
        "returns": {
          "_0": "true if address is a curator"
        }
      },
      "decimals()": {
        "details": "Returns the number of decimals used to get its user representation. For example, if `decimals` equals `2`, a balance of `505` tokens should be displayed to a user as `5.05` (`505 / 10 ** 2`). Tokens usually opt for a value of 18, imitating the relationship between Ether and Wei. This is the value {ERC20} uses, unless this function is overridden; NOTE: This information is only used for _display_ purposes: it in no way affects any of the arithmetic of the contract, including {IERC20-balanceOf} and {IERC20-transfer}."
      },
      "decreaseAllowance(address,uint256)": {
        "details": "Atomically decreases the allowance granted to `spender` by the caller. This is an alternative to {approve} that can be used as a mitigation for problems described in {IERC20-approve}. Emits an {Approval} event indicating the updated allowance. Requirements: - `spender` cannot be the zero address. - `spender` must have allowance for the caller of at least `subtractedValue`."
      },
      "fetchCurators()": {
        "details": "use this for testing or for all curators",
        "returns": {
          "_0": "address[] array of curators"
        }
      },
      "fetchTree(string)": {
        "details": "use this for testing or for finding information about a particular tree",
        "params": {
          "_exifSHA": "unique identifier of a tree"
        }
      },
      "getCuratorAtPosition(uint256)": {
        "details": "gets curator address at a known positionin curators array",
        "params": {
          "position": "position in the index"
        },
        "returns": {
          "_0": "address of the curator at known position"
        }
      },
      "increaseAllowance(address,uint256)": {
        "details": "Atomically increases the allowance granted to `spender` by the caller. This is an alternative to {approve} that can be used as a mitigation for problems described in {IERC20-approve}. Emits an {Approval} event indicating the updated allowance. Requirements: - `spender` cannot be the zero address."
      },
      "name()": {
        "details": "Returns the name of the token."
      },
      "pay(string)": {
        "details": "must be a curator assigned to the tree and the tree must be in a pending state",
        "params": {
          "_exifSHA": "unique identifier of the tree"
        }
      },
      "reject(string,string)": {
        "details": "must be a curator assigned to the tree and the tree must be in a pending state",
        "params": {
          "_exifSHA": "unique identifier of the tree",
          "_rejectReason": "arbitraty reason the tree was rejected by the curator"
        }
      },
      "symbol()": {
        "details": "Returns the symbol of the token, usually a shorter version of the name."
      },
      "totalSupply()": {
        "details": "See {IERC20-totalSupply}."
      },
      "transfer(address,uint256)": {
        "details": "See {IERC20-transfer}. Requirements: - `recipient` cannot be the zero address. - the caller must have a balance of at least `amount`."
      },
      "transferFrom(address,address,uint256)": {
        "details": "See {IERC20-transferFrom}. Emits an {Approval} event indicating the updated allowance. This is not required by the EIP. See the note at the beginning of {ERC20}. Requirements: - `sender` and `recipient` cannot be the zero address. - `sender` must have a balance of at least `amount`. - the caller must have allowance for ``sender``'s tokens of at least `amount`."
      }
    },
    "stateVariables": {
      "curatorCount": {
        "details": "track total number of curators"
      },
      "curatorIndex": {
        "details": "create a unique set of curators and their index. See https://ethereum.stackexchange.com/a/30481 for inspiration"
      },
      "curators": {
        "details": "track curators in a simple array to easily reference from their index and for ui purposes"
      },
      "nextCurator": {
        "details": "track curator to use when creating a tree"
      },
      "treeArray": {
        "details": "track trees in a simple array for ui purposes"
      },
      "treeCount": {
        "details": "track total number of trees"
      },
      "trees": {
        "details": "mapping of unique EXIF hashes (unique identifier) to determined tree data"
      }
    },
    "title": "Proof of Trees",
    "version": 1
  },
  "userdoc": {
    "kind": "user",
    "methods": {
      "becomeCurator()": {
        "notice": "this function currently allows anyone to become a curator"
      },
      "constructor": {
        "notice": "this function creates a tree"
      },
      "createTree(string,uint8,int256,int256)": {
        "notice": "this function creates a tree"
      },
      "curatorInArray(address)": {
        "notice": "answers true if curator address has been added to list of curators"
      },
      "fetchCurators()": {
        "notice": "gives the array of curators"
      },
      "pay(string)": {
        "notice": "this function allows a curator to pay out TREE tokens for a Hippie's tree"
      },
      "reject(string,string)": {
        "notice": "this function allows a curator to reject a tree"
      }
    },
    "notice": "This contract is for demonstration purposes!",
    "version": 1
  }
}